:100000000C9444030C9463030C9463030C946303F7
:100010000C9463030C9463030C9463030C946303C8
:100020000C9463030C9463030C94E0220C94B623A9
:100030000C94E71D0C9463030C9463030C9463030A
:100040000C9463030C9463030C94550C0C9463039D
:100050000C9463030C94401E0C9463030C94630390
:100060000C9463030C9463030C9463030C94630378
:100070000C9463030C9463030C9463030C94630368
:100080000C9463030C9463030C9463030C94630358
:100090000C9463030C946303C913C913FB13FB1380
:1000A00048147C157C157C156614FB140C150C1576
:1000B0006C157C157C157515181618162A162A1637
:1000C00021162A162A162A161816181626162A1661
:1000D0002A16261627244E2446254E2446259A24E1
:1000E000BD2446251425232507634236B79BD8A790
:1000F0001A39685618AEBAAB558C1D3CB7CC57634D
:10010000BD6DEDFD753EF6177231BF000000803FFA
:1001100008000000BE922449123EABAAAA2ABECD16
:10012000CCCC4C3E00000080BEABAAAAAA3E000088
:100130000000BF000000803F000000000008417880
:10014000D3BB4387D1133D190E3CC3BD4282AD2BB7
:100150003E68EC8276BED98FE1A93E4C80EFFFBEAF
:1001600001C4FF7F3F0000000000640000000000A9
:100170006300620000005200E3003E003F003400D4
:1001800000000B0029003D000A001B00E400E50010
:10019000550054005300480000002800360032008B
:1001A000370010001D00060019001F0000000000AD
:1001B0004E00450044004D00460043002500270046
:1001C000260024001E00200021003A00E00000006C
:1001D0004B0049004C004A00000042002E002D0058
:1001E0004100230035003B0022001A0000000000FF
:1001F000610060005F005700470000000C00130022
:100200001200180014000800150039000000E10079
:100210005E005D005C00000000002A0030002F003E
:1002200040001C002B003C001700160000000000DE
:100230005B005A0059005800000031000E003300E6
:100240000F000D000400070009000000000000007E
:1002500056004F0051005000E6002C00000038000E
:100260000000110000000000050001000000000077
:100270000100010000000100010001000100010077
:100280000000010001000100010001000100010067
:100290000100010001000100000001000100010057
:1002A0000100010001000100010001000000000048
:1002B0000100010001000100010001000100010036
:1002C0000100010001000100010001000100000027
:1002D0000100010001000100000001000100010017
:1002E0000100010001000100010001000000000008
:1002F00001000100010001000100000001000100F7
:1003000001000100010001000100010000000100E6
:1003100001000100010000000000010001000100D7
:1003200001000100010001000100010000000000C7
:1003300001000100010001000000010001000100B6
:1003400001000100010001000100000000000000A8
:100350000100010001000100010001000000010096
:10036000000001000000000001000100000000008A
:100370000100010000000100010001000100010076
:100380000000010001000100010001000100010066
:100390000100010001000100000001000100010056
:1003A0000100010001000100010001000000000047
:1003B0000100010001000100010001000100010035
:1003C0000100010001000100010001000100000026
:1003D0000100010001000100000001000100010016
:1003E0000100010001000100010001000000000007
:1003F00001000100010001000100000001000100F6
:1004000001000100010001000100010000000100E5
:1004100001000100010000000000010001000100D6
:1004200001000100010001000100010000000000C6
:1004300001000100010001000000010001000100B5
:1004400001000100010001000100000000000000A7
:100450000100010001000100010001000000010095
:100460000000010000000000010001000000000089
:100470000100010000000100010001000100010075
:100480000000010001000100010001000100010065
:100490000100010001000100000001000100010055
:1004A0000100010001000100010001000000000046
:1004B0000100010001000100010001000100010034
:1004C0000100010001000100010001000100000025
:1004D0000100010001000100000001000100010015
:1004E0000100010001000100010001000000000006
:1004F00001000100010001000100000001000100F5
:1005000001000100010001000100010000000100E4
:1005100001000100010000000000010001000100D5
:1005200001000100010001000100010000000000C5
:1005300001000100010001000000010001000100B4
:1005400001000100010001000100000000000000A6
:100550000100010001000100010001000000010094
:10056000000001000000000001001E0343004F00D6
:100570004D0050004100510020004D005800310056
:1005800031003800300030000000380343006F00B5
:100590006D00700061007100200043006F006D006D
:1005A00070007500740065007200200043006F0049
:1005B0006D0070006F0072006100740069006F00D0
:1005C0006E0000000403090409023B00020100A0C0
:1005D000FA090400000103010100092111010001D1
:1005E0002240000705810308000A090401000103F5
:1005F00000000009211101000122320007058203D9
:1006000020000A12011001000000089F0444B901F3
:10061000000102000105010980A101850319012AD9
:10062000B700150126B700950175108100C0050CB3
:100630000901A101850419012AA002150126A002C1
:10064000950175108100C005010906A10105071972
:10065000E029E715002501950875018102950175CE
:100660000881010507190029FF150026FF009506DE
:100670007508810005081901290595057501910284
:10068000950175039101C00011241FBECFEFD0E288
:10069000DEBFCDBF14E0A0E0B1E0EEEAF3E500E09C
:1006A0000BBF02C007900D92A43FB107D9F726E017
:1006B000A4EFB4E001C01D92A438B207E1F70E9494
:1006C00019200C94D5290C94000081E0089581E054
:1006D00008950C94670308950C946B031F93CF93B4
:1006E000DF9300D000D01F92CDB7DEB749835A8385
:1006F0006B833091510589819A81311114C0662331
:1007000059F0222349F00E94511B182F682F89812C
:100710009A810E94FA1A03C00E94251B182F698132
:100720007A81812F04C00E94511B69817A810F90C8
:100730000F900F900F900F90DF91CF911F910C941D
:100740008104FC01262F4081518162817381848163
:100750000C946E03CF93DF93EC0160E00E94A10341
:10076000BE01DF91CF910C946C030E949F1E0E94EA
:100770008B1C811102C00E943B1D0E946D040E94CF
:1007800042080C94A0068091F804811117C0809152
:10079000F6049091F704009739F40E94191E909383
:1007A000F7048093F6040AC00E94311E8D329140F6
:1007B00028F00E945B0A81E08093F8040E941C0DDF
:1007C0000C949C060895CF93DF930E9406160E9416
:1007D000E10C0E94191EEC0140E063E070E080E053
:1007E00091E00E94F2090E94E203CE010E94311EB4
:1007F0008A3F910538F48FE99FE00197F1F700C037
:100800000000F3CF0E941B08DF91CF910C94661E6D
:100810000F931F93CF93DF93EC0161E00E94A1033C
:100820008C01BE010E9469038823A9F1BE01C801A1
:100830000E94CE07882379F1BE01C8010E94800D75
:10084000882349F1BE01C8010E94490F882319F18C
:10085000BE01C8010E949B0F8823E9F0BE01C801B8
:100860000E94F3108823B9F08A81882369F001156A
:100870008CE5180731F00F3D1C4531F40E943B1DFB
:100880000AC00E94E30307C0CE01DF91CF911F9100
:100890000F910C94650380E0DF91CF911F910F9130
:1008A000089508950C94510481E00895CF93C82FC2
:1008B0000E945404882379F0C0FF02C02C9A01C022
:1008C0002C98C1FF02C02B9A01C02B98C2FF02C016
:1008D0002A9A01C02A98CF910895249A2C98239A95
:1008E0002B98229A2A980895CF93C82F0E945204D9
:1008F0008C2F0E945604CF91089580E090E00895D7
:100900000895E72FF0E098E0899FE00DF11D112494
:1009100084E0EE0FFF1F8A95E1F7E60FF11DEE0F61
:10092000FF1FE659FE4F859194910895880F991FF6
:10093000FC01E659FA4F859194910895CF93DF9386
:100940000E9481040E94B005EC018115904508F0D9
:1009500043C0C11580E4D80708F0CBC0C03ED10524
:1009600028F5C03CD10508F0B3C0C83AD10578F4E9
:10097000C53AD10508F0A4C0C130D10509F4ECC0D6
:1009800008F4E8C0C430D10508F0E6C0E3C0CF3BAE
:10099000D10508F0DFC0C85AD0E0CC0FDD1FC75822
:1009A000DB4F0990D881C02DD464D6C0C11590E228
:1009B000D90750F4C11521E0D20708F0CDC0C83ED8
:1009C000D10508F4C9C0C6C0C11580E3D80708F036
:1009D00086C0CE019F707FC0C11595E5D90708F08C
:1009E00043C0C11524E5D20708F09AC0C11582E5BD
:1009F000D80708F5C11591E5D90708F07DC0CE01EB
:100A000074E0969587957A95E1F783709C2F9370A3
:100A100021E030E002C0220F331F9A95E2F73C68D4
:100A2000382BCF70C695C69580E2C89FE00111248F
:100A3000C22BD32B91C09E01237033278C2F869518
:100A40008695C115D34508F05CC0C1E0D0E002C076
:100A5000CC0FDD1F2A95E2F720E2829FC00111240E
:100A6000C82BD92BDC6878C0C11529E5D207A0F4C2
:100A7000C11588E5D80708F058C0C11596E5D90713
:100A800008F068C08C2F0E9444068F71C82FD0E0F8
:100A9000DC2FCC27D06260C0C1152AE5D20708F44C
:100AA00049C0CE0190568115904208F053C08D2F59
:100AB0008F710E944406DD27D0628F71D82B4CC005
:100AC000C55AD0E0C955DB4FC881D0E0D06444C0DE
:100AD000CE01805C91090E949604EC013DC0CE01DC
:100AE0009927D3FF03C0EC01D86C36C0EC01D06C61
:100AF00033C0DF70D06A30C0DC2FCC27C16FD06A22
:100B00002BC0C1E0D0E002C0CC0FDD1F2A95E2F778
:100B100020E2829FC0011124C82BD92BDA681CC0A7
:100B2000DC2FCC27C46FD06A17C0DC2FCC27C06F56
:100B3000D06A12C08C2F8F700E94440694E0D69524
:100B4000C7959A95E1F7CF70D0E0DC2FCC27D0691C
:100B5000C82B02C0C0E0D0E0CE01DF91CF91089554
:100B60008238910569F1B0F48133910509F46DC0C3
:100B700048F48932910509F463C08A32910509F479
:100B800069C008958533910509F455C089339105ED
:100B9000B9F00895833E910569F138F4803E9105DE
:100BA000B1F0823E910509F10895863E9105A9F1C3
:100BB000873E9105B9F1843E910509F064C023C0D8
:100BC0002091750620FD4FC021FD4DC008958091F4
:100BD000750680FD44C08091760680FF44C08091F8
:100BE000750684FD42C083EE4DC08091750682FF7C
:100BF00038C0F5CF8091750682FD33C080917606AE
:100C000080FD31C0ECCF8091760681FF32C08091AB
:100C1000750684FD2AC087EE35C08091750683FF76
:100C200026C0F5CF8091750683FD21C080917606A0
:100C300081FD1FC0ECCF8091750685FD1CC01DC0D5
:100C40008091750685FD19C016C08091750686FDD8
:100C500016C017C08091750686FD13C010C089E3C9
:100C600011C082EE0FC080EE0DC080E00BC086EE9A
:100C700009C084EE07C089E205C085E303C08AE2AB
:100C800001C081E390E008959091750692FF0DC038
:100C9000282F2871283019F4877F846006C0282FF8
:100CA0002471243011F48B7F886093FF0DC0282FAE
:100CB0002871283119F4877E846106C0282F247199
:100CC000243111F48B7E88612091760620FF0DC0BF
:100CD000382F3871383019F4877F816006C0382F7B
:100CE0003171313011F48E7F886021FF0DC0282FC3
:100CF0002871283119F4877E816106C0282F21715F
:100D0000213111F48E7E886194FD877E0895E82F4D
:100D1000F0E0EE0FFF1FE55FF94F808191810895AC
:100D2000089580EA8A95F1F7089500C008950C941B
:100D3000910608950C9499060C949A060C949906C1
:100D40000C949E06F894E82FE295EF70F0E031A144
:100D5000282F2F7081E090E001C0880F2A95EAF7D4
:100D6000982F9095932391A392A1892B82A3789495
:100D70000895CF93DF93CAEBD4E089910E94A20635
:100D800084E0C23CD807C9F7CAEAD4E089910E943E
:100D9000A20684E0CA3BD807C9F7EBEFF5E0ABE069
:100DA000B6E08BE096E0119211921D921D928E1783
:100DB0009F07C9F788E00E947407DF91CF910C94D8
:100DC000B5037F928F929F92AF92BF92CF92DF92A4
:100DD000EF92FF920F931F93CF93DF930BEF15E0EA
:100DE0008AEBE82E84E0F82EC0E0D0E0712CAA2433
:100DF000A394B12C4701F7018081F894E82FE29584
:100E0000EF70F0E021A18F70A50102C0440F551FC3
:100E10008A95E2F7CA01922F982B91A392A180950F
:100E2000892382A378940E949506EAEAF4E020E000
:100E300030E0C12CD12C4191A42FA295AF70B0E02D
:100E400090968C9190E04F7002C0959587954A9549
:100E5000E2F780FD08C0C501022E02C0880F991F6D
:100E60000A94E2F702C080E090E0C82AD92A2F5FF6
:100E70003F4F20313105F9F65FEFE51AF50AF4012D
:100E800080810E94A206C730D10511F00E9497060A
:100E9000F80180819181C816D90621F0D182C082E3
:100EA00081E001C080E0782A21960E5F1F4FC83094
:100EB000D10509F09FCF272D48E06BE076E08BEF5E
:100EC00095E00E9475070E94C303872DDF91CF91A3
:100ED0001F910F91FF90EF90DF90CF90BF90AF9058
:100EE0009F908F907F9008950895FF920F931F9386
:100EF000CF93DF93F82E092F162FD72FC42F22233D
:100F000049F081E08093FB040E94191E9093FA043B
:100F10008093F9048091FB048823D9F08091F9042F
:100F20009091FA040E94311E069798F0EF2DF02F51
:100F3000A12FBD2F80E090E04C2F50E08417950743
:100F400034F4219131912D933D930196F7CF109276
:100F5000FB04DF91CF911F910F91FF900895682FAF
:100F600070E065547109072E000C880B990B0E94E4
:100F7000222620E030E040E451E40E947F259B01DE
:100F8000AC0160E070E080E090E40E943F2720E048
:100F900030E04CED53E40E94D2260895FB018D31E0
:100FA0002CE5920731F482818823A1F10E946D0A19
:100FB0002FC08E312CE5920731F48281882351F1C4
:100FC0000E947D0A25C08F312CE5920741F4828171
:100FD000882301F10E9417088111F2CFE7CF8A32EE
:100FE0002CE5920731F482818823A1F00E94D40C71
:100FF00008C08B329C4571F48281882359F00E948D
:10100000D70C40E064E070E088E191E00E94F209D2
:1010100080E0089581E008950E94AF070C94AE0926
:101020000E94AF070C946F080C941B0808958091E0
:101030006F068170089580913801811122C010924D
:1010400007050E94470C10920605109205051092A4
:10105000030510920205EFE2F6E080E090E0A0E8E0
:10106000BFEB1182108282839383A483B58317829E
:101070001682389626E0EF36F20799F781E08093E2
:10108000380108958091FC04811128C00E948B1CB6
:10109000811102C00E943B1D0E94BC1C80936F0600
:1010A000EFE2F6E080E090E0A0E8BFEB1182108272
:1010B00082839383A483B58317821682389626E0B1
:1010C000EF36F20799F78091FC04811105C00E9468
:1010D0003D0C81E08093FC040C941B080895CF9292
:1010E000DF92EF92FF920F931F93CF93DF936B01E9
:1010F0007C0120E030E0A9010E947A2587FF04C02E
:10110000F7FAF094F7F8F09480910505882309F434
:1011100058C08091FC04811102C00E9442080FE275
:1011200016E0C7E0D0E0F80122AD33AD44AD55ADD7
:10113000C701B6010E947A2581112BC083E0CC0F34
:10114000DD1F8A95E1F7C15DD94F1982188280E0D1
:1011500090E0A0E8BFEB8A839B83AC83BD831F82B2
:101160001E82AC01BD01F6E0C736DF07D1F088E092
:10117000FE013896DE0101900D928A95E1F71986FD
:1011800018864A875B876C877D871F861E86289610
:10119000EACF219708501109CF3F8FEFD80719F6F2
:1011A00010C0C1E0C0930405809107058150809371
:1011B0000705811106C00E94470CC09338011092A8
:1011C0000505DF91CF911F910F91FF90EF90DF9078
:1011D000CF9008957F928F929F92AF92BF92CF92BD
:1011E000DF92EF92FF920F931F93CF93DF934B0108
:1011F0005C016A0180916F0680FFA2C08091FC04AF
:10120000811102C00E94420820E030E0A901C5011E
:10121000B4010E947A2587FF04C0B7FAB094B7F8EA
:10122000B09470900705072D10E0E801219743E086
:10123000000F111F4A95E1F7E12CF12CCF3FFFEF92
:10124000DF07D9F128E0E21AF108F801EE0DFF1DE1
:10125000E15DF94F2281338144815581C501B4019B
:101260000E947A25811127C08E0133E0000F111FE3
:101270003A95E1F7015D194F8091070590E00197DC
:10128000C817D9070CF05CC0219688E0F8013896A1
:10129000D80101900D928A95E1F70E94191EF8017C
:1012A0009187808782869386A486B586D786C686F0
:1012B000085F1F4FE1CF2197C1CF81E0870D8930B3
:1012C00060F58093070581E0809304058093050510
:1012D000C0910705D0E021970E94191EFE0123E06E
:1012E000EE0FFF1F2A95E1F7E15DF94F91838083AF
:1012F00082829382A482B582D782C6820E94191EFE
:101300009093120580931105809138018823C1F0D4
:101310000E94490C1092380113C088E080930705A1
:101320008FE296E028E0FC013896DC0101900D92F6
:101330002A95E1F7089626E08736920799F7C3CFFA
:10134000DF91CF911F910F91FF90EF90DF90CF90A1
:10135000BF90AF909F908F907F9008954FEF5FEF79
:101360000C94EA08CF92DF92EF92FF92E09107058A
:101370008E17E8F4E150E81B88E0E802F001112440
:10138000E15DF94FC280D380E480F58020E030E059
:10139000A901C701B6010E947A25181644F4C701B5
:1013A000B601FF90EF90DF90CF900C94DA0C60E0E4
:1013B00070E0CB01FF90EF90DF90CF9008954091C7
:1013C00041029C01A0E6BAEE0E94702950E4459FBC
:1013D00090011124032E000C440B550B0E9445294B
:1013E000C9010895EF92FF921F93CF93DF9320914D
:1013F0006F0620FD07C0DF91CF911F91FF90EF9006
:101400000C941B08142F7B01EC018091FC048111CA
:1014100002C00E9442088091050581110E941B08AC
:1014200081E0809306051092FF04D0932E06C093AE
:101430002D06F0921C06E0921B0610937006109287
:101440000105109200056C817D818E819F810E9433
:10145000F125CB010E94DF09AC01688179818A8185
:101460009B810E94EA080E94191E9093FE048093BB
:10147000FD0480912D0690912E06E0910005F091DB
:10148000010523E0EE0FFF1F2A95E1F7E80FF91F92
:1014900064817581868197810E94F125CB010E942C
:1014A000DF099093030580930205DF91CF911F918F
:1014B000FF90EF90089580916F0680FF07C040E095
:1014C0006DE170E089E591E00E94F2090E94191E29
:1014D0009093FE048093FD04089580916F068160CF
:1014E00080936F060E94C01C0E94160840E062E0D4
:1014F00070E089E491E00C94F20940E062E070E071
:1015000089E391E00E94F2092FEF81EE94E02150EF
:1015100080409040E1F700C000000E941B088091CD
:101520006F068E7F80936F060C94C01CAF92BF92A3
:10153000CF92DF92EF92FF920F931F93CF93DF939F
:1015400080910505811105C0C0910605CC2309F4E1
:101550001EC10E94191EEC0180910605811102C076
:1015600010E0DDC08091FD049091FE040E94311EC8
:1015700020910205309103058217930788F380912B
:10158000FD049091FE040E94311E209102053091CD
:1015900003057C01E21AF30AD093FE04C093FD0414
:1015A000A0900005B0900105C5010196909301053A
:1015B000809300050E94191E9093120580931105D7
:1015C00000911B0610911C06809100059091010569
:1015D0008017910760F0C0917006CC2329F010921B
:1015E00001051092000503C00E941B08D0C0809125
:1015F000FF04C0900005D0900105C0912D06D09148
:101600002E06811136C0F50133E0EE0FFF1F3A952B
:10161000E1F7EC0FFD1FD60143E0AA0FBB1F4A956F
:10162000E1F7AC0FBD1F2D913D914D915C91608113
:101630007181828193810E947A2581111AC081E093
:101640008093FF0482E090E00E94DF09AC0160E03B
:1016500070E0CB010E94EA08B0920105A09200055B
:1016600082E090E00E94DF099093030580930205D9
:1016700055C01092FF04F60123E0EE0FFF1F2A95DC
:10168000E1F7EC0FFD1F64817581868197810E94CF
:10169000F125CB010E94DF090150110920910005BD
:1016A000309101058E159F0530F0E816F90600F11E
:1016B00001E010E020C020173107B8F7E81AF90A56
:1016C0002F5F3F4F309301052093000593E0220FD9
:1016D000331F9A95E1F7FE01E20FF31F64817581D4
:1016E000868197810E94F125CB010E94DF09D6CF28
:1016F0008C010E191F0983E0220F331F8A95E1F731
:10170000FE01E20FF31F6081718182819381A80144
:101710000E94EA08109303050093020511E08091EE
:101720000505882361F180911305811103C0809123
:101730001405811111E0CFE2D6E0E12CF12C80916B
:10174000070590E0E816F906D4F48E819F81019791
:101750008E3F9F4F78F4888199810E94311E2E819F
:101760003F818217930730F06A817B818C819D8154
:101770000E946F088FEFE81AF80A2896E0CFC09110
:101780000405CC2319F01092040501C0C12F8C2F41
:10179000DF91CF911F910F91FF90EF90DF90CF904D
:1017A000BF90AF900895CF92DF92EF92FF926B01BE
:1017B0007C0120E030E0A9010E947A25811106C059
:1017C000809180008F7C809380003CC0809180005D
:1017D000806280938000C0920C05D0920D05E0924B
:1017E0000E05F0920F0520E030E040E051E4C70123
:1017F000B6010E94D2269B01AC0160E074E284E74E
:101800009BE40E947F256B017C010E94F12570936F
:101810008700609386006091420270E080E090E073
:101820000E942226A70196010E94D22620E030E0E5
:1018300048EC52E40E947F250E94F12570938B00B2
:1018400060938A00FF90EF90DF90CF900895EFE6CD
:10185000F0E0808184608083E0E8F0E08081806255
:1018600080830895EFE6F0E080818B7F8083E0E85D
:10187000F0E080818F7C808308950E94320C269A4C
:1018800082E0809380008AE18093810008950C9427
:10189000320C0E94270C80910505882329F080E0F6
:1018A0000E94B2090C94D30B08951F920F920FB6A9
:1018B0000F9211240BB60F92CF92DF92EF92FF920C
:1018C0002F933F934F935F936F937F938F939F9348
:1018D000AF93BF93EF93FF93809108059091090513
:1018E000A0910A05B0910B050196A11DB11D809331
:1018F000080590930905A0930A05B0930B05609124
:1019000008057091090580910A0590910B050E94C8
:1019100020266B017C0120E030E040E85CE3609130
:101920000C0570910D0580910E0590910F050E9498
:10193000D2269B01AC01C701B6010E947A2587FD22
:101940001CC0109208051092090510920A05109209
:101950000B050E94960A90910505911107C0909180
:101960000605911103C00E94320C07C0882329F09C
:1019700080E00E94B2090E94D30BFF91EF91BF91CA
:10198000AF919F918F917F916F915F914F913F9117
:101990002F91FF90EF90DF90CF900F900BBE0F90A4
:1019A0000FBE0F901F901895109210050895109279
:1019B0001005089520911005211102C01092140500
:1019C000089580912D0581110C941408089521E04B
:1019D0008F3F910508F020E0822F08950C94E70CCA
:1019E0000E94E10C10922D0540E068E070E083EC6D
:1019F00092E00C94F20910922C0540E068E070E04F
:101A000083E492E00C94F2090E94E10C2091E5033A
:101A100030E02F5F3F4F237033272093E50348E2E8
:101A2000429FC001439F900D112440E065E070E0AB
:101A30008D5B9C4F0C94F209CF93809129058823EC
:101A400009F442C08091150590911605009781F424
:101A50000E94191E90931605809315052091170575
:101A600030E02115310571F48091180590E00BC02C
:101A70000E94311E2091E3033091E40328173907B7
:101A800038F322C0C9010197F901E75EFA4FC0811E
:101A900020912D05222331F0FC01E75EFA4F808171
:101AA0000E94100880912D05882319F08C2F0E9428
:101AB0000C088091170590E001966091180570E080
:101AC0000E94312980931705CF910895089581E0F0
:101AD00080932D0540E068E070E083E093E00E9491
:101AE000F2090C94660D089581E080932C0540E086
:101AF00068E070E083E892E00E94F2090C94730DB4
:101B0000EF92FF921F93CF93DF93CDB7DEB7A397EA
:101B10000FB6F894DEBF0FBECDBF7C0186E2E8169B
:101B20008CE5F80641F4FB018281882309F450C05A
:101B30000E94670DAAC0F7E2EF16FCE5FF0641F42C
:101B4000FB018281882309F443C00E94F00C9DC0F0
:101B5000F8E2EF16FCE5FF0649F4FB0182818823D9
:101B6000B9F180912D058111F0CFE2CFFCE2EF16A3
:101B7000FCE5FF0639F4FB018281882349F10E94CC
:101B8000740D83C0FDE2EF16FCE5FF0639F4FB019E
:101B900082818823E9F00E94FB0C77C0FEE2EF16F9
:101BA000FCE5FF0649F4FB018281882389F08091DE
:101BB0002C058111F0CFE3CFF9E2EF16FCE5FF062B
:101BC00039F4FB018281882319F00E94040D5DC065
:101BD00090912D05911105C080912C05882309F461
:101BE000D8C0FB014281442309F451C0F0EEEF1646
:101BF000F10461F40E94E10C81E080932B051092C6
:101C00002A0510922905109218053FC082EEE816A9
:101C1000F10471F40E94E10C80912B05882319F0E6
:101C200081E080932A0510922B05109229052DC082
:101C3000E3EEEE16F10491F480912A05882339F140
:101C40000E94E10C10922B0581E0809329051092EF
:101C50001705109216051092150517C0F2E5EF163C
:101C6000F10431F48091E3039091E4030A9709C0F1
:101C700081E5E816F10459F48091E3039091E403BF
:101C80000A969093E4038093E30380E083C08091FD
:101C9000E50381110AC0FB0110818091E803180F50
:101CA00013508091E603180F4AC08130A1F4FB0164
:101CB00010818091E803180F105E2091E603120F47
:101CC000818128E030E0281B3109822F880F880F9E
:101CD000280F120F3DC0823099F4FB0110818091D2
:101CE000E803180F105E8091E603180F818128E049
:101CF00030E0281B3109F7E02F9F100D112428C078
:101D0000833021F583E2E6E5F4E0DE0111960190EF
:101D10000D928A95E1F7FB01808121E030E02C0FE4
:101D20003D1F280F311DE091E603F091E703E20F1C
:101D3000F31F1091E80313508081180FFB0181817C
:101D400028E030E0281B3109FCE0D6CF1091E803F1
:101D50004423A1F0992319F0812F0E940C0880914F
:101D60002B05882381F080911805E82FF0E0E75ECD
:101D7000FA4F10838F5F8093180505C0992319F0DF
:101D8000812F0E941008C7010E94EE0C91E0892764
:101D900001C081E0A3960FB6F894DEBF0FBECDBFA1
:101DA000DF91CF911F91FF90EF9008950F931F93B4
:101DB000CF93DF93C42FD22FFC0182818823C9F0F7
:101DC000409330050E94191E90932F0580932E0595
:101DD00080E28C0F883008F057C0C77081E001C0E6
:101DE000880FCA95EAF7DF91CF911F910F910C945C
:101DF000881380913005481330C080912E05909152
:101E00002F050E94311E883C910538F510E21D0F08
:101E1000CD17B9F080E28C0F883040F4C77081E0B4
:101E200001C0880FCA95EAF70E948F13183028F571
:101E300081E09D2F977001C0880F9A95EAF70E9464
:101E40008813802F0E947F131830F0F4D77081E040
:101E500001C0880FDA95EAF70AC080E28C0F88305B
:101E600098F4C77081E001C0880FCA95EAF7DF9146
:101E7000CF911F910F910C948F13802FDF91CF91F1
:101E80001F910F910C947F13DF91CF911F910F91B0
:101E900008950F939C01CB01243F4CE5340731F1A9
:101EA00088F4293DFCE53F07D9F02A3D4CE534078D
:101EB00079F1283D3C45A9F506E221EE41EE68EDB9
:101EC0007CE52BC0263FFCE53F07E1F0A8F0273F6B
:101ED0003C4539F507E225EE46EE67EF7CE51DC08F
:101EE00007E225EE45EE69ED7CE517C006E221EE3E
:101EF00040EE64EF7CE511C007E225EE44EE65EFAD
:101F00007CE50BC006E221EE42EE66EF7CE505C003
:101F100008E221E045EE6AED7CE50E94D60E80E005
:101F200008C0FC018281882319F01092300501C09D
:101F300081E00F910895CF93DF93EC01FB01828143
:101F4000882309F44CC1C230FCE5DF0708F448C11E
:101F5000C6319CE5D90738F09E012B5F3C452930FE
:101F6000310508F03DC10E949E1C90937606809337
:101F70007506C031ECE5DE0709F4CCC008F042C0BC
:101F8000C8308CE5D80709F4A1C0F0F4C430ECE502
:101F9000DE0709F487C068F4C2308CE5D80709F47D
:101FA0007DC0C330DC4509F010C1809175068260A8
:101FB0007CC0C630ECE5DE0709F480C008F082C0C2
:101FC00080917506886071C0CC308CE5D80709F423
:101FD0008DC068F4CA30ECE5DE0709F47BC008F078
:101FE00081C00E9406168091750680685EC0CE3062
:101FF0008CE5D80709F47EC008F088C0809175068A
:102000008B7F53C0CC3FECE5DE0709F451C020F5CF
:10201000C3318CE5D80709F485C078F4C131ECE50B
:10202000DE0709F47BC0C231DC4509F0CEC00E9456
:102030000616809175068F7738C0C5318CE5D807B4
:1020400009F480C008F4B2C0CB3FDC4509F0BDC044
:102050008091760681602FC0C115FDE5DF0709F488
:1020600069C078F4CE3F9CE5D90709F44BC008F469
:1020700045C080917606826081608093760640E05C
:102080008BC0C230FDE5DF0709F49CC008F476C0C0
:10209000C330DD4509F099C080E095C08091750698
:1020A000816003C0809175068460809375068DC041
:1020B0008091760682608093760687C0809175064F
:1020C0008061F3CF809175068062EFCF80917506B5
:1020D0008064EBCF8091750688608460809375067C
:1020E00040E040C0809175068E7FDFCF80917506FD
:1020F0008D7FDBCF80917506877FD7CF8091760665
:102100008E7FD9CF809176068D7FD5CF8091750651
:102110008F7ECBCF809175068F7DC7CF809175065E
:102120008F7BC3CF80917506877F8B7F80937506E9
:1021300040E01FC0809176068D7F8E7F809376066B
:1021400040E02FC08091750682FB222720F991E0A4
:1021500040E0922790FB82F990FB83F9809375060B
:10216000992339F064E070E089E194E00E94F2097B
:102170002CC062E070E089E394E0F8CF80917606AD
:10218000982F909591708E7F892B90FB81F9809389
:10219000760640E0992329F064E070E089EE93E050
:1021A000E5CF62E070E089E094E0E0CF0E9406169F
:1021B0008091750687FB222720F991E0922790FBFA
:1021C00087F973CF81E00E943D1D80917506909143
:1021D00076060E94AF1C0E94061680E001C081E0D6
:1021E000DF91CF910895CF93DF9386319C4541F5E0
:1021F000EB010E94D21B982F8A81209149043091D3
:102200004A04882379F09A7A81E009F480E0809387
:102210003105911102C069E201C065E3C9010E9464
:10222000841D0AC080913105811102C069E201C09C
:1022300065E3C9010E94861D0E94201C80E001C048
:1022400081E0DF91CF910895909337058093360513
:102250000895E0913605F0913705309721F001900F
:10226000F081E02D099480E00895E0913605F09129
:102270003705309721F00280F381E02D099408950D
:1022800020913405309135052817390771F0909366
:10229000350580933405E0913605F0913705309788
:1022A00021F00680F781E02D0994089520913205F0
:1022B000309133052817390771F0909333058093D7
:1022C0003205E0913605F0913705309721F0008412
:1022D000F185E02D09940895CF93DF9390E1899FD4
:1022E000D001112420E030E080E090E0C1E0D0E0B7
:1022F000F901EA0FFB1FEE0FFF1FE659FE4FE491B5
:10230000EE2371F0AE01022E02C0440F551F0A9455
:10231000E2F7FA01E623F723EF2B11F0842B952B3C
:102320002F5F3F4F2031310519F7DF91CF9108958D
:102330000E94251E60934D0570934E0580934F05B6
:10234000909350056093490570934A0580934B051F
:1023500090934C05089585B7806885BF85B78068E0
:1023600085BF089581E008950C94B21108950C94EE
:10237000B6110C94B6110C94B9110C94B6110C94BE
:10238000BD110C94B6110E94AB1183E89CE10E9430
:10239000981E0E94C1110C94BF110E94101E0E9431
:1023A000B9060E94B31E0C94BB115F926F927F928C
:1023B0008F929F92AF92BF92CF92DF92EF92FF9255
:1023C0000F931F93CF93DF93CDB7DEB72A970FB646
:1023D000F894DEBF0FBECDBF0E94B7110E94B611A8
:1023E0000E94E10681110E94981139E3832E35E0A5
:1023F000932E00E010E0502E802F0E9487066C0183
:10240000F401A190B1904F01A826B926A114B104FE
:10241000B1F40F5F1F4F0830110569F78FEF898303
:102420008A831B820E94191E8160782F9D838C8372
:1024300049815A816B818D810E94B41241C0BC01D7
:10244000802F0E946C113C01019786219721892BD6
:10245000C9F0F12C5F1005C0F394F8E0FF12FACF39
:1024600011C08F2D0E948706BC018F2D0E946C1118
:10247000862197219C012150310982239323892BA6
:1024800059F3C7CF8091EF0581FD0E949006712C12
:10249000EE24E394F12CC5018E219F21892B09F4B0
:1024A00046C00E94B41181112CC0000F111FF80109
:1024B000E75CFA4F80819181E826F926F182E0827B
:1024C0000E942911909138058917C1F10E942911A4
:1024D000809338052A960FB6F894DEBF0FBECDBFA5
:1024E000DF91CF911F910F91FF90EF90DF90CF90F0
:1024F000BF90AF909F908F907F906F905F900C9463
:1025000074047E825F82CE20DF2081E0CD2809F432
:1025100080E088870E94191E8160782F9A878987BA
:102520004E815F8168858A850E94B412BECF739404
:10253000EE0CFF1C80E17812AECF6BCF2A960FB65F
:10254000F894DEBF0FBECDBFDF91CF911F910F91E9
:10255000FF90EF90DF90CF90BF90AF909F908F90C3
:102560007F906F905F900895DF92EF92FF920F93AC
:102570001F93CF93DF93CDB7DEB72B970FB6F894A9
:10258000DEBF0FBECDBFF42E052F162FE72ED82E9F
:1025900061110E94F21BFE01319686E0DF011D925F
:1025A0008A95E9F77E2D4F2D502F612F8D2D9E811D
:1025B0000E94BF182B960FB6F894DEBF0FBECDBF9A
:1025C000DF91CF911F910F91FF90EF90DF900895D1
:1025D000FC01808191810E94931B0895CF938823F1
:1025E00009F448C0C82F8CEF8C0F813AD0F46C2FBF
:1025F0008091490490914A040E944E1D882349F01D
:102600006C2F8091490490914A040E94861D0E947B
:10261000201C6C2F8091490490914A040E94841DD3
:102620000CC080E28C0F883058F4C77081E001C084
:10263000880FCA95EAF70E94D51BCF910C94201CF5
:10264000EBE5EC0FE33040F4F0E0E051FB4F80812C
:1026500090E0CF910C944011C85AC73158F4EC2F38
:10266000F0E0EE0FFF1FEE53FB4F80819181CF9181
:102670000C945611CF910895882349F1682F8CEF5F
:10268000860F813A38F48091490490914A040E945F
:10269000861D0CC080E2860F883050F4677081E0A0
:1026A00001C0880F6A95EAF70E94DB1B0C94201C7E
:1026B0008BE5860F833020F480E090E00C9440118D
:1026C000685A673120F480E090E00C945611089528
:1026D0001F93CF93DF93182FEB010E94EE122097E8
:1026E00041F08FE99FE00197F1F700C000002197CA
:1026F000F6CF812FDF91CF911F910C943C1389333A
:1027000019F060E070E002C060E570E00C946813BE
:10271000882321F00E94D51B0C94201C0895882347
:1027200021F00E94DB1B0C94201C0895CF92DF92B5
:10273000EF92FF920F931F93CF93DF937C01062FAD
:10274000C72FFC01D281158112951F700E94CB1BEF
:10275000882399F0DD2389F08C2F807F803421F04D
:1027600080E2800F883048F082E00E946A1C0E945C
:10277000CB1B91E0D82ED92601C0D12CCC2EC294EF
:102780008FE0C8228C2D90E0FC01E45BFF4F0C949D
:1027900067298C2F807FCF70882311F0C295C07F6E
:1027A000DD2399F0CC2309F482C180E2800F8830C8
:1027B00010F0011104C08C2F0E94D51B03C08C2F78
:1027C0000E94E51B0E94201C72C1802F0E943C13B6
:1027D000CC2309F491C180E2800F883010F0011100
:1027E00004C08C2F0E94DB1B03C08C2F0E94EB1BAC
:1027F0000E94201C81C18C2F807FCF70803211F00D
:10280000C295C07F002319F00130C9F022C0DD233A
:1028100071F0112341F0113031F40E94051C8C2B12
:102820000E940D1C69C10E94051C8C2B1DC0112328
:1028300019F0113009F460C10E94161C25C0DD2377
:1028400021F0163008F058C10EC0153008F054C100
:102850001BC0DD2361F0112331F0F701858180FF7A
:1028600026C18F7085838C2F0E94881345C1112348
:1028700059F0093309F02CC1FFEF27EE83E0F15046
:1028800020408040E1F722C18C2F0E948F1334C179
:102890008C2F86958695837019F0813061F02CC15C
:1028A000DD2321F0802F9C2F937002C080E090E008
:1028B0000E94401129C1DD2321F0802F9C2F9370AD
:1028C00002C080E090E00E9456111EC18C2F8370E0
:1028D00009F045C0D11114C1402F4295469547706B
:1028E000440F440F602F6F70862F90E0A0E0B0E09F
:1028F000042E04C0880F991FAA1FBB1F0A94D2F789
:1029000004FF10C00FE010E020E030E004C0000F32
:10291000111F221F331F4A95D2F70095109520955D
:10292000309503C000E010E09801C695C695C370CD
:10293000BC01CD01602B712B822B932BC23049F04F
:1029400058F4C13019F00E94101ADAC00E94FE1922
:10295000D7C00E94221AD4C00E94FC19D1C0DD2326
:1029600019F08C2F817001C08695882309F4C8C0A6
:10297000402F429546954770440F440F602F6F706B
:10298000862F90E0A0E0B0E0042E04C0880F991FCD
:10299000AA1FBB1F0A94D2F704FF10C00FE010E07B
:1029A00020E030E004C0000F111F221F331F4A95A2
:1029B000D2F7009510952095309503C000E010E007
:1029C0009801C695C695C370BC01CD01602B712BD3
:1029D000822B932BC23049F058F4C13019F00E9479
:1029E000D51A8EC00E94C31A8BC00E94E71A88C0F5
:1029F0000E94361A85C0CF70DD2339F08C2F0E94DB
:102A00005C1A802F0E9488137BC0802F0E948F1336
:102A10008C2F0E947D1A74C0023F01F128F4003F00
:102A200041F0013FA1F03FC0033FF9F0043F39F10D
:102A30003AC0DD2341F0153008F05EC08C2F8F7155
:102A40000E94A21A59C0163008F056C0F7CFDD23F5
:102A500039F08C2F8F710E945C1A4EC0DD23C9F3B0
:102A60008C2F8F710E947D1A47C0DD2329F08C2F97
:102A70008F710E94471A40C00E94421A3DC0DD2358
:102A800049F0CF718C2F0E945C1A63E08C2F0E945A
:102A9000551C32C081E00E946A1C123068F182E04D
:102AA0000E946A1C29C0DD2331F0112391F2802F8E
:102AB0000E94EE1221C0112399F2093349F49FEFCD
:102AC000E7EEF3E09150E040F040E1F700C0000095
:102AD000802F0E943C1310C04C2F4F70602FC701F5
:102AE0000E947D040E946D190FC04C2F4F70602F03
:102AF000C7010E94800408C088EF8C0D843020F448
:102B00000E9429110E947404DD20C9F00E94C71B95
:102B100080FD15C0F70112820E94C11B0E945C1A41
:102B2000C7010E94C0150E94C11BDF91CF911F9168
:102B30000F91FF90EF90DF90CF900C947D1ADF9172
:102B4000CF911F910F91FF90EF90DF90CF9008955C
:102B50000F931F93CF93DF93EC01688179818A8172
:102B60000E949E1B8C010E94F91A0E94EA19B8016A
:102B7000CE010E949613DF91CF911F910F9108957E
:102B8000CF93DF93EC01988189812B813C81232BAA
:102B900031F08F3F31F481E09F3F19F403C081E0B1
:102BA00001C080E080FD19C0CE010E94080481119F
:102BB0000CC00E94CB1B882381F08A81882369F096
:102BC00082E0DF91CF910C946A1CCE010E94A8157F
:102BD000CE01DF91CF910C94AA03DF91CF9108959C
:102BE00080E090E00E94401180E090E00E94561149
:102BF0000E94F21B0E94021C0C94201C809149042C
:102C000090914A040E94881D0C94F0150E94E21BCA
:102C10000C94FE15E92FE295EF704E2F50E0FA016B
:102C20003297EE30F105B0F4E45AFF4F0C94672967
:102C3000803F91F018F4883E68F40EC0843F51F450
:102C40000BC0883E48F0813F29F406C093FB8827DB
:102C500080F9089580E0089581E008950E94931B13
:102C60000E940A160895CF93DF9300D000D01F92E0
:102C7000CDB7DEB70F900F900F900F900F90DF91B0
:102C8000CF910895CF93DF9300D000D000D0CDB77F
:102C9000DEB726960FB6F894DEBF0FBECDBFDF912C
:102CA000CF9108951F93CF93DF93C091520516E003
:102CB00080915305C81799F0D0E01C9FF0011D9F2B
:102CC000F00D1124EC5AFA4F4081518162817381D9
:102CD000848195810E9442162196C770E9CFDF91C9
:102CE000CF911F9108954091840550918505609181
:102CF00086057091870580918805909189050C94CF
:102D000042160F931F93CF93DF938091890582958D
:102D10008F7009F05DC080918605882309F458C042
:102D2000809152051091530560918405709185053D
:102D3000C0918705D091880591E06F3F09F090E040
:102D4000292F06E0811709F443C0209721F07F3F27
:102D500021F030E003C031E001C0322F90E030FDBF
:102D600034C0089FF001099FF00D1124DF01AC5A17
:102D7000BA4F11963C911197371327C03C913613E7
:102D800024C012963C91129731111FC013964D9199
:102D90005C9114974C1B5D0B483C5105B0F480913D
:102DA00089058F70806180938905E75AFA4F808189
:102DB0008F708061808384E895E00E94C015DF9168
:102DC000CF911F910F910C94521601968770BACF34
:102DD000DF91CF911F910F9108959F92AF92BF9273
:102DE000CF92DF92EF92FF920F931F93CF93DF93D7
:102DF000CDB7DEB761970FB6F894DEBF0FBECDBF7B
:102E00008C0185E0F801DE011D9601900D928A95F6
:102E1000E1F7F80140815181E28090918405609151
:102E2000850520918705309188052115310531F000
:102E30006F3F31F481E09F3F19F403C081E001C08E
:102E400080E0F82FF1709F2E80FD46C1F801A3802D
:102E5000B48084E8C82E85E0D82EF0908605F50170
:102E6000E21BF30BFF2009F4DFC080918905E83CE9
:102E7000F10508F09BC0282F207F09F052C056139F
:102E800013C0491311C0FE2CE1100EC08F70806179
:102E9000809389050E947316C6010E94C015809117
:102EA0008905F801858358C1AB2831F05F3F31F4C3
:102EB00081E04F3F19F403C081E001C080E080FD54
:102EC00003C081E08E2502C080E090E0F82FF17011
:102ED000FF2E80FF1CC0809152052091530536E0E3
:102EE000821709F417C190E0389FF001399FF00D67
:102EF0001124EC5AFA4F6181561306C060814613C3
:102F000003C06281E61203C001968770E9CFFE2CF0
:102F1000EE2009F421C180918905816080938905A3
:102F20005AC0561306C0491304C0E11002C0F8018C
:102F30009FC04D875E878D859E850E942E168823B3
:102F400079F1EE2069F120918905822F82958F70A9
:102F500090E0029774F080918405909185059887A0
:102F60008F831986BB86AA862C87CE0107960E947E
:102F7000C01586E0F801A4E8B5E001900D928A95AD
:102F8000E1F70E9481160E9473160DC0561729F1B1
:102F90004D875E878D859E850E942E1681112CC0DF
:102FA000C8010E94C015FF24F394D6C0282F207FAB
:102FB00069F77A2DB98AA88A6E2D89890E943316FD
:102FC00084E895E00E94C01586E0F60111928A958A
:102FD000E9F70E947316F12CBFC04913D9CFE11055
:102FE000D7CFF8018583C8010E94C01586E0F6019D
:102FF00011928A95E9F7B0C0EE2091F220918905EF
:10300000822F82958F7090E002970CF4B2CF80915E
:103010008405909185059A8389831B82BD82AC8249
:103020002E83CE010196A3CFE83CF10508F047C0FE
:10303000FE2CEE2009F4B4CF561330C049132EC035
:103040002091890520FD21C0822F82958F70482F05
:1030500050E041155105C9F0F80125834F30510565
:1030600041F08F5F982F9295907F822F8F70892BE0
:103070008583C8010E94C01586E0F801A4E8B5E088
:1030800001900D928A95E1F742C086E0F801A4E82C
:10309000B5E001900D928A95E1F75EC04D875E879D
:1030A0008D859E850E942E16811163CF80918905A2
:1030B000816080938905C8010E94C0154DC07A2D9A
:1030C000B98AA88A6E2D89890E94331686E0F60196
:1030D00011928A95E9F71BC0EE2009F461CF4D8764
:1030E0005E878D859E850E942E16F82E882309F412
:1030F00057CF86E0F801A4E8B5E001900D928A95DB
:10310000E1F784E895E00E94E8120E9481160E948F
:10311000731622C04D875E878D859E850E94931B06
:10312000292F22952F70223028F49F7039F08111B9
:1031300005C00BC0243028F49F7049F4805E8830AD
:1031400020F0C8010E94C0159F2CF92C05C0F80181
:103150009581907F99F7F9CF8F2D61960FB6F894EE
:10316000DEBF0FBECDBFDF91CF911F910F91FF90BA
:10317000EF90DF90CF90BF90AF909F9008951F93F6
:10318000CF93DF93CDB7DEB72C970FB6F894DEBFA1
:103190000FBECDBF4F83588769877A878B879C87FF
:1031A000CE0107960E94ED168823D1F09F81888575
:1031B0002A853B85232B31F08F3F31F481E09F3FFF
:1031C00019F403C081E001C080E080FD47C04F8159
:1031D000588569857A858B859C850E9442163EC0FC
:1031E00086E0FE013796DE01119601900D928A95D8
:1031F000E1F7FF81E8856A857B856115710531F00E
:10320000EF3F31F481E0FF3F19F403C081E001C0DA
:1032100080E080FD23C02091530530E0C901019674
:10322000877099274091520550E084179507F1F176
:10323000F983EA837D836C8396E0929FD001939F0C
:10324000B00D1124AC5ABA4FFE01319601900D9287
:103250009A95E1F7809353050E94521616E08091EB
:10326000520590915305891771F1189FC0011124DF
:103270008C5A9A4F0E94ED16882329F1E09152054D
:103280001E9FF0011124EC5AFA4F40815181628156
:103290007381848195810E9442168091520590E04D
:1032A00001968770992780935205D9CF0E94061600
:1032B0001092530510925205E4E8F5E086E0DF0134
:1032C0001D928A95E9F72C960FB6F894DEBF0FBED3
:1032D000CDBFDF91CF911F910895EF92FF920F9391
:1032E0001F93CF93DF938C01892B09F46CC0F12CD1
:1032F000EE24E394E8012196F8018491843740F4A8
:10330000843008F051C0813081F0823019F15BC007
:10331000853709F444C0A8F19CE7980F903708F06E
:1033200052C08F770E943C1341C00E5F1F4FFE01B9
:10333000849190E2980F983050F48770FE2D01C070
:10334000FF0F8A95EAF78F2F0E94F51B14C00E9489
:10335000EE122DC00E5F1F4FFE01849190E2980F78
:10336000983060F48770FE2D01C0FF0F8A95EAF750
:103370008F2F0E94FB1B0E94201C19C00E943C132F
:1033800016C00E5F1F4FFE01C491CC2381F08FE960
:103390009FE00197F1F700C00000C150F6CF0E5F2B
:1033A0001F4FFE01F49003C00E94EE128E018F2D7C
:1033B000882309F49FCFEFE9FFE03197F1F700C0D0
:1033C00000008150F5CFDF91CF911F910F91FF90B9
:1033D000EF900895089508950C94EB190C94EC194E
:1033E0000E94EE196093DE057093DF058093E0057F
:1033F0009093E1050C94F0150C94F0190F931F9322
:103400000091DE051091DF052091E0053091E10586
:10341000602B712B822B932B1F910F910C94F01921
:103420000F931F930091DE051091DF052091E005B9
:103430003091E10560237123822393231F910F9123
:103440000C94F0190F931F930091DE051091DF0586
:103450002091E0053091E1056027712782279327AD
:103460001F910F910C94F0190C94EB190E94341ACF
:103470006093DA057093DB058093DC059093DD059E
:103480000C94F01560E070E0CB010C94361A0F93A9
:103490001F9341E050E060E070E08A019B0104C0AE
:1034A000000F111F221F331F8A95D2F7C901B801DF
:1034B0001F910F910C94361A0F931F9341E050E027
:1034C00060E070E004C0440F551F661F771F8A95A7
:1034D000D2F78091DA059091DB05A091DC05B091DF
:1034E000DD058A019B01082B192B2A2B3B2BC901D7
:1034F000B8011F910F910C94361A0F931F9341E05E
:1035000050E060E070E004C0440F551F661F771F55
:103510008A95D2F740955095609570958091DA051F
:103520009091DB05A091DC05B091DD058A019B013E
:10353000082319232A233B23C901B8011F910F91A6
:103540000C94361A0F931F9341E050E060E070E056
:1035500004C0440F551F661F771F8A95D2F78091CC
:10356000DA059091DB05A091DC05B091DD058A01BB
:103570009B01082719272A273B27C901B8011F915A
:103580000F910C94361A0F931F930091DA05109146
:10359000DB052091DC053091DD05602B712B822B42
:1035A000932B1F910F910C94361A0F931F93009138
:1035B000DA051091DB052091DC053091DD056023F3
:1035C0007123822393231F910F910C94361A0F932A
:1035D0001F930091DA051091DB052091DC053091F5
:1035E000DD0560277127822793271F910F910C9487
:1035F000361A089520E1929F800D1124E82FE69558
:10360000E695E695877051E001C0550F8A95EAF777
:1036100085E0E89FF0011124E657FA4F20E030E002
:1036200070E04081CB01022E02C0969587950A94E6
:10363000E2F78170819584278523842781932F5F0A
:103640003F4F2530310569F7089520E1929F800DA5
:103650001124682F669566956695982F977085E07A
:10366000689FB001112440E050E080E0FB01E40FCE
:10367000F51FE657FA4F208130E0092E02C036953B
:1036800027950A94E2F721703327042E01C0220FF8
:103690000A94EAF7822B4F5F5F4F4530510531F7AF
:1036A0000895BF92CF92DF92EF92FF920F931F93F4
:1036B000CF93DF938C01C090DA05D090DB05E090CA
:1036C000DC05F090DD058091DE059091DF05A0918D
:1036D000E005B091E105C82AD92AEA2AFB2ACFE100
:1036E000D0E0D701C6010C2E04C0B695A7959795DA
:1036F00087950A94D2F780FD04C0219790F7B12CEA
:1037000007C0BC2EB8018C2F0E949E040197A9F31C
:103710008B2DDF91CF911F910F91FF90EF90DF9054
:10372000CF90BF900895CF93DF93EC010E94511B7F
:10373000BE010E949E04DF91CF9108951F93CF9305
:10374000DF93EB0190915105992321F0CB010E9469
:10375000931B13C0882349F0CB010E94511B182FE3
:10376000682FCE010E94FA1A04C0CB010E94251BCB
:10377000182FBE01812F0E949E04DF91CF911F91CF
:1037800008958091E20585958595859508958091A8
:10379000E205877008959091E205977081E009F441
:1037A00080E008958091EE0508959091EE05892BB3
:1037B0008093EE05089580959091EE05892380937E
:1037C000EE0508951092EE0508959091ED05892B70
:1037D0008093ED05089580959091ED058923809360
:1037E000ED0508951092ED0508959091EC05892B53
:1037F0008093EC05089580959091EC058923809342
:10380000EC0508951092EC0508958091E305089564
:1038100008950C94081C0C94091C9091E3059817CA
:1038200021F08093E3050C940B1C08958091E3052F
:10383000882329F01092E30580E00C940B1C089576
:10384000E0914904F0914A048091EE058083E09173
:103850004904F0914A0490818091ED05892B808381
:10386000E0914904F0914A0490818091EC05892B04
:1038700080838091E305882381F0E0914904F091F1
:103880004A049081892B80838091490490914A0455
:103890000E94421D81110E94161C80914904909142
:1038A0004A040C9435110C94081C98E0899F9001EF
:1038B0001124262B2093E2050E945C1A8091E205D8
:1038C0008595859585950C94531C1092E20580E0B2
:1038D0000C94531C2091E205809582238093E2058D
:1038E000982F977079F430E0482F082E000C550B74
:1038F0002417350739F08595859585950E947D1AA1
:103900000C94651C089580E008956FEF7FEF80E0D0
:1039100090E00C94BF2980E090E00E949B2921E078
:103920008B3E9E4F09F020E0822F089582E090E0C8
:103930000C94932983E090E00C949329CF9384E036
:1039400090E00E949329C82F81E290E00E94932981
:103950002C2F30E0A901582BCA01CF910895CF93A5
:10396000C92F682F84E090E00E94A1296C2F81E28A
:1039700090E0CF910C94A12987E090E00C949329DA
:10398000682F87E090E00C94A129AB01BC018FE087
:1039900090E00C94B329AB01BC0183E190E00C945E
:1039A000B32960E070E0CB010C94CB1C60E070E0C8
:1039B000CB010E94C51C0C94D11C6BEE7EEF80E005
:1039C00090E00E94BF2960E082E090E00E94A1297F
:1039D00060E083E090E00E94A1291092DE05109241
:1039E000DF051092E0051092E10560E084E090E0D0
:1039F0000E94A12960E081E290E00E94A12960E09C
:103A000085E090E00E94A12960E086E090E00E94BD
:103A1000A1296FEF87E090E00E94A12940E050E0EB
:103A2000BA0188E090E00E94B32960E08DE090E068
:103A30000E94A12940E050E0BA0188E190E00E9494
:103A4000B32960E087E190E00E94A12940E050E0C6
:103A5000BA018CE190E00E94B32960E080E290E03E
:103A60000E94A12940E050E0BA0188E190E00E9464
:103A7000B3290C94D61C0C94DD1C682F8EE090E0CA
:103A80000C94A129FC01329697E080E0915029F036
:103A900021912223D9F38F5FF9CF0895662349F04E
:103AA000FC01329608962191621729F0E817F90770
:103AB000D1F780E0089581E008959C01FC013296E1
:103AC0009FEF80E04191461789F09F3F19F4411123
:103AD00001C0982F8F5F8630A9F79F3F39F0F90119
:103AE000E90FF11D97FDFA956283089508959C01F1
:103AF0002A5F3F4FFC014281461301C012820196AA
:103B000082179307B9F708950C945D1D0C94771DE7
:103B1000029626E0FC0111922A95E9F7089508958E
:103B20000C948F1D0C948F1DCF930E94921D0E94A8
:103B3000E1060E94901DC0E08C2F0E948706892B11
:103B400029F4CF5FC830C1F780E001C081E0CF9198
:103B500008950C948F1D0C94A91D80917B068430D0
:103B600059F10E94AB1D80E00E9474040E941B0862
:103B70001092F00520E488E190E00FB6F894A89543
:103B8000809360000FBE2093600083B7817F8460C4
:103B900083BF83B7816083BF7894889583B78E7F16
:103BA00083BF0FB6F894A8958091600088618093D8
:103BB0006000109260000FBE08950C948F1D0E944B
:103BC00006160E9429110E9474040C94DD1D1F9298
:103BD0000F920FB60F9211248F939F93AF93BF93C1
:103BE0008091F005811113C0809171069091720649
:103BF000A0917306B09174064196A11DB11D8093EA
:103C0000710690937206A0937306B0937406BF91E9
:103C1000AF919F918F910F900FBE0F901F901895AD
:103C200082E084BD93E095BD9AEF97BD80936E00CE
:103C300008952FB7F8948091710690917206A09123
:103C40007306B09174062FBF08952FB7F894609152
:103C500071067091720680917306909174062FBF61
:103C600008959C014FB7F894809171069091720667
:103C7000A0917306B09174064FBF821B930B0895F9
:103C800078941F920F920FB60F9211248F939F93E7
:103C9000AF93BF938091710690917206A0917306C5
:103CA000B09174060196A11DB11D80937106909389
:103CB0007206A0937306B0937406BF91AF919F9163
:103CC0008F910F900FBE0F901F901895F89481E080
:103CD0008093E00080E28093D800E9ECF0E010826D
:103CE0008FE19EE40197F1F700C000001DBA109229
:103CF00068001CBC10BE1FBA10927A0010926E00B1
:103D000010926F0010927000109271001082109249
:103D1000BC0011B814B817B81AB81DB810BA12B848
:103D200015B818B81BB81EB811BA0C9400FE089547
:103D30009093F5048093F40408950C94851C0E94DC
:103D4000E1068FE39CE90197F1F700C000000E94B3
:103D5000E10680E00E94870695FF04C00E949D1E38
:103D60000C94661E08950E948B1C811102C00E9453
:103D70003B1D0E94961C8093EF050E949E1C909311
:103D80007606809375060E949A1C682F70E080E08A
:103D900090E00E94FC196091DA057091DB0580913A
:103DA000DC059091DD050C94341A8091F905089595
:103DB0000895CF93DF9300D01F92CDB7DEB79091D7
:103DC0007B06943019F589837B836A8382E0809334
:103DD000E9008FEF9091E800815095FD06C095EDC8
:103DE0009A95F1F700008111F5CF8091E80085FFE9
:103DF0000DC040E050E063E070E0CE0101960E940B
:103E0000D5208091E8008E778093E8000F900F9086
:103E10000F90DF91CF910895BC0184E00C94D91EDE
:103E2000BC0183E00C94D91ECF93DF9321E0209353
:103E3000E9002FEF3091E800215035FD06C035ED47
:103E40003A95F1F700002111F5CF2091E80025FF08
:103E500014C0EC0140E050E068E070E00E94D52022
:103E60008091E8008E778093E80088E0FE01A1EF62
:103E7000B5E001900D928A95E1F7DF91CF91089519
:103E800080917A06811109C00E9462220E94C42298
:103E90008091E20084608093E200089510927A0697
:103EA000089508950895089542E061EC81E00E942C
:103EB000DB2142E261EC82E00C94DB2180917D0603
:103EC000833009F45EC030F4813071F0823009F43F
:103ED00097C008958A3009F483C08B3009F469C013
:103EE000893009F0A5C020C080917C06813A09F094
:103EF0009FC08091E800877F8093E80080918006D2
:103F000090918106892B21F468E081EF95E003C050
:103F100060E080E090E070E00E9420218091E80065
:103F20008B778093E800089580917C06813209F0B8
:103F30007FC08091800690918106029708F078C03A
:103F40008091E800877F8093E8008091E80082FDFF
:103F500005C080917B068111F8CF6AC08091F20084
:103F60009091F300029729F48091F1008B7F8130CA
:103F700021F48091F1008093F9058091E8008B771E
:103F800053C080917C06813A09F052C0809180062E
:103F900090918106892B09F04BC08091E800877FC2
:103FA0008093E8008091E80080FFFCCF8091550469
:103FB00036C080917C068132D9F58091800690913F
:103FC0008106892BA9F58091E800877F8093E8001E
:103FD0000E94102280917E06809355040C94061650
:103FE00080917C06813221F58091E800877F809363
:103FF000E8000E94102280917F068093FA050895C0
:1040000080917C06813AA1F48091E800877F8093BB
:10401000E8008091E80080FFFCCF8091FA05809352
:10402000F1008091E8008E778093E8000C941022D4
:10403000089584B7877F84BF0FB6F894A8958091C0
:104040006000886180936000109260000FBE90E075
:1040500080E80FB6F89480936100909361000FBEE2
:104060000E94C3110E9462220E94C4228091E20039
:1040700084608093E20078940E945F250E94CD11B5
:104080008BE494E00E94241180917B068530A9F492
:1040900080917B06853079F40E94AD1D8091790670
:1040A0008823B1F30E94941D882391F30E94BF20BE
:1040B0000E940616EDCF0E94DF1D0E94D5110E94BE
:1040C000B7110E94B611E0CF0C946620292F332738
:1040D00023303105C9F060F42130310581F0223000
:1040E000310509F044C08BE390E028EC35E043C093
:1040F00021323105E1F02232310549F138C082E147
:1041000090E023E036E037C099278130910549F0EF
:1041100028F0029761F5EAE6F5E005C0E4ECF5E089
:1041200002C0EAE8F5E0849190E09F0124C06115A7
:10413000710541F061307105D1F489E090E023EF21
:1041400035E019C089E090E02AED35E014C0611532
:10415000710541F06130710551F482E390E025E191
:1041600036E009C080E490E027E436E004C080E057
:1041700090E020E030E0FA0131832083089584E16B
:1041800089BD86E189BD09B400FEFDCF8091D800CC
:104190008F7D8093D8008091E00082608093E00062
:1041A0008091E00081FDFCCF0895CF92DF92EF92E5
:1041B000FF920F931F93CF93DF93EC018B017A0152
:1041C0000E942F22811133C0E114F10439F0F7016C
:1041D00080819181081B190BC80FD91FC12CD12CCC
:1041E0000115110519F18091E80085FD16C0809137
:1041F000E8008E778093E800E114F10449F0F701BC
:1042000080819181C80ED91ED182C08285E00FC005
:104210000E942F22882321F30AC089918093F10004
:1042200001501109FFEFCF1ADF0ADACF80E0DF91EA
:10423000CF911F910F91FF90EF90DF90CF90089555
:1042400020918206309183062617370748F06115C2
:10425000710539F42091E8002E772093E80001C021
:10426000B901FC0120E06115710569F180917B06BF
:104270008823E1F18530E1F18091E80083FD3AC0C7
:104280008091E80082FD2CC08091E80080FFEBCF98
:104290008091F2009091F3006115710551F0883022
:1042A000910538F421912093F10061507109019634
:1042B000F3CF21E0089709F020E08091E8008E77A5
:1042C0008093E800D0CF2111D1CF0AC080917B0626
:1042D000882361F0853061F08091E80083FD0AC099
:1042E0008091E80082FFF2CF80E0089582E0089597
:1042F00083E0089581E0089520918206309183063D
:104300002617370748F06115710539F42091E80048
:104310002E772093E80001C0B901FC0120E061156F
:10432000710581F180917B06882309F43EC08530B8
:1043300009F43DC08091E80083FD3BC08091E80016
:1043400082FD2DC08091E80080FFE9CF8091F200CE
:104350009091F3006115710559F08830910540F492
:1043600024912093F1003196615071090196F2CFAA
:1043700021E0089709F020E08091E8008E77809393
:10438000E800CDCF2111CECF0AC080917B068823D3
:1043900061F0853061F08091E80083FD0AC0809172
:1043A000E80082FFF2CF80E0089582E0089583E084
:1043B000089581E00895982F973068F59093E9006B
:1043C000981739F07091EC002091ED005091F000B9
:1043D00003C0242F762F50E021FD02C09F5FECCF59
:1043E0003091EB003E7F3093EB003091ED003D7F4C
:1043F0003093ED003091EB0031603093EB0070931F
:10440000EC002093ED005093F0002091EE0027FD8A
:10441000E5CF80E008958F708093E90081E00895F2
:1044200080917C0687FF11C08091E80082FD05C065
:1044300080917B068111F8CF11C08091E8008B77C5
:104440000BC080917B06882349F08091E80080FFB3
:10445000F8CF8091E8008E778093E800089520914E
:10446000E4003091E50095E64091EC00842F8170E6
:1044700040FF23C08091E80080FD1DC080917B0635
:10448000882399F0853099F08091EB0085FD11C06B
:104490004091E4005091E5002417350729F391502D
:1044A00011F09A01E1CF84E0089582E0089583E05D
:1044B000089581E0089580E008954091E80042FF6A
:1044C000DDCF08950E94D3220E94DB22E0EEF0E0CF
:1044D000808181608083E8EDF0E080818F77808348
:1044E00019BCA7EDB0E08C918E7F8C9380818F7E7C
:1044F000808310927A0608950F931F93CF93DF93D2
:104500000E94D3220E94DB22C8EDD0E088818F7701
:10451000888388818068888388818F7D8883E7EDA0
:10452000F0E080818068808319BC10927B06109235
:104530007706109279061092780600EE10E0F801E6
:1045400080818B7F808388818160888342E060E006
:1045500080E00E94DB21E1EEF0E080818E7F8083AD
:10456000E2EEF0E0808181608083808188608083DA
:10457000F80180818E7F8083888180618883DF91CC
:10458000CF911F910F910895E8EDF0E080818F7E2B
:104590008083E7EDF0E080818160808381E080931B
:1045A0007A060C947C22E8EDF0E080818C7F808399
:1045B0001092E20008951092DA001092E10008953E
:1045C0001F920F920FB60F9211240BB60F922F93DA
:1045D0003F934F935F936F937F938F939F93AF938B
:1045E000BF93EF93FF938091E10082FF0BC0809116
:1045F000E20082FF07C08091E1008B7F8093E100A1
:104600000E945E258091DA0080FF1FC08091D80053
:1046100080FF1BC08091DA008E7F8093DA0080914A
:10462000D90080FF0DC084E189BD86E189BD09B450
:1046300000FEFDCF81E080937B060E94401F05C0F5
:1046400019BC10927B060E944E1F8091E10080FFF2
:1046500019C08091E20080FF15C08091E2008E7F3A
:104660008093E2008091E20080618093E20080917B
:10467000D80080628093D80019BC85E080937B06C7
:104680000E94521F8091E10084FF30C08091E200BF
:1046900084FF2CC084E189BD86E189BD09B400FE98
:1046A000FDCF8091D8008F7D8093D8008091E1006C
:1046B0008F7E8093E1008091E2008F7E8093E20004
:1046C0008091E20081608093E200809177068823E8
:1046D00011F084E007C08091E30087FD02C081E013
:1046E00001C083E080937B060E94531F8091E1000C
:1046F00083FF29C08091E20083FF25C08091E10003
:10470000877F8093E10082E080937B06109277069A
:104710008091E1008E7F8093E1008091E2008E7FA6
:104720008093E2008091E20080618093E20042E0A9
:1047300060E080E00E94DB218091F000886080933F
:10474000F0000E94511FFF91EF91BF91AF919F9197
:104750008F917F916F915F914F913F912F910F902A
:104760000BBE0F900FBE0F901F9018951F920F92C7
:104770000FB60F9211240BB60F922F933F934F93C6
:104780005F936F937F938F939F93AF93BF93CF93D9
:10479000DF93EF93FF93C091E900CF708091EC001D
:1047A000D82FD17080FDD0E81092E9008091F00000
:1047B000877F8093F00078940E94FE231092E90096
:1047C0008091F00088608093F000CD2BCF70C09373
:1047D000E900FF91EF91DF91CF91BF91AF919F9150
:1047E0008F917F916F915F914F913F912F910F909A
:1047F0000BBE0F900FBE0F901F9018951F93CF9375
:10480000DF93CDB7DEB7AA970FB6F894DEBF0FBE21
:10481000CDBFECE7F6E08091F100819326E0E4382B
:10482000F207C9F70E945E1F8091E80083FF2EC146
:1048300080917C0690917D06492F50E04A305105C9
:1048400008F024C1FA01E659FF4F0C94672980381B
:1048500021F0823809F01AC108C080917806909141
:104860007906992389F082600FC0809180068F704D
:10487000873008F00BC18093E9008091EB0085FB45
:10488000882780F91092E9009091E800977F909333
:10489000E8008093F1001092F100D1C0282F2D7F05
:1048A00009F0F4C0882319F0823061F0EFC08091E4
:1048B0007E06813009F0EAC0933009F080E08093F1
:1048C00079062EC080917E0681112AC080918006D3
:1048D0008F702FEF280F263008F0D8C08093E900A2
:1048E0002091EB0020FF1CC0933021F48091EB005D
:1048F000806214C09091EB0090619093EB0021E0F6
:1049000030E0A90102C0440F551F8A95E2F7409399
:10491000EA001092EA008091EB0088608093EB003F
:104920001092E9008091E800877F8093E8000E9460
:104930001022ACC08111AAC010917E061F77809111
:10494000E3008078812B8093E3008091E800877FEB
:104950008093E8000E9410228091E80080FFFCCF45
:104960008091E30080688093E300111102C082E02F
:1049700001C083E080937B0689C08058823008F0B4
:1049800085C080917E0690917F068C3D53E095070F
:1049900079F583E08A838AE289834FB7F894DE0150
:1049A000139620E03EE051E2E32FF0E050935700F1
:1049B000E49120FF03C0E295EF703F5FEF708E2F10
:1049C00090E0EA3010F0C79601C0C0968D939D9399
:1049D0002F5F243149F74FBF8091E800877F809394
:1049E000E8006AE270E0CE0101960E94202116C024
:1049F0006091800670918106AE014F5F5F4F0E940B
:104A00006420BC01892B09F441C09091E800977F94
:104A10009093E80089819A810E947C218091E8002E
:104A20008B778093E80032C0803881F58091E80070
:104A3000877F8093E800809177068093F1008091D2
:104A4000E8008E7772CF811121C080917E0690910F
:104A50007F0699270297D4F48091E800877F80939E
:104A6000E80080917E06809377060E941022809154
:104A70007706811106C08091E30087FD02C081E0C6
:104A800001C084E080937B060E94541F8091E8005F
:104A900083FF0AC08091E800877F8093E8008091BF
:104AA000EB0080628093EB00AA960FB6F894DEBF0D
:104AB0000FBECDBFDF91CF911F9108950895CF9381
:104AC00080917B068823A1F0C091E900CF7090917E
:104AD000EC00892F817090FD80E8C82B1092E900CE
:104AE0008091E80083FD0E94FE23CF70C093E9000F
:104AF000CF9108950E945D2608F481E008950E94F8
:104B000093250C9498260E94912658F00E948A269C
:104B100040F029F45F3F29F00C94812651110C9448
:104B2000CC260C9487260E94A92668F39923B1F31A
:104B3000552391F3951B550BBB27AA2762177307C3
:104B4000840738F09F5F5F4F220F331F441FAA1F57
:104B5000A9F335D00E2E3AF0E0E832D09150504013
:104B6000E695001CCAF72BD0FE2F29D0660F771FC1
:104B7000881FBB1F261737074807AB07B0E809F0A7
:104B8000BB0B802DBF01FF2793585F4F3AF09E3F2C
:104B9000510578F00C9481260C94CC265F3FE4F309
:104BA000983ED4F3869577956795B795F7959F5F6F
:104BB000C9F7880F911D9695879597F90895E1E0BB
:104BC000660F771F881FBB1F621773078407BA071A
:104BD00020F0621B730B840BBA0BEE1F88F7E09575
:104BE00008950E94B12688F09F5798F0B92F992711
:104BF000B751B0F0E1F0660F771F881F991F1AF0C8
:104C0000BA95C9F714C0B13091F00E94CB26B1E03B
:104C100008950C94CB26672F782F8827B85F39F03A
:104C2000B93FCCF3869577956795B395D9F73EF460
:104C300090958095709561957F4F8F4F9F4F089508
:104C4000E89409C097FB3EF4909580957095619526
:104C50007F4F8F4F9F4F9923A9F0F92F96E9BB27DC
:104C60009395F695879577956795B795F111F8CF58
:104C7000FAF4BB0F11F460FF1BC06F5F7F4F8F4FC3
:104C80009F4F16C0882311F096E911C0772321F0B9
:104C90009EE8872F762F05C0662371F096E8862F51
:104CA00070E060E02AF09A95660F771F881FDAF7A8
:104CB000880F9695879597F90895990F0008550FD5
:104CC000AA0BE0E8FEEF16161706E807F907C0F092
:104CD00012161306E407F50798F0621B730B840B9A
:104CE000950B39F40A2661F0232B242B252B21F474
:104CF00008950A2609F4A140A6958FEF811D811D14
:104D0000089597F99F6780E870E060E008959FEF4D
:104D100080EC089500240A94161617061806090652
:104D2000089500240A941216130614060506089521
:104D3000092E0394000C11F4882352F0BB0F40F4A9
:104D4000BF2B11F460FF04C06F5F7F4F8F4F9F4FE9
:104D5000089557FD9058440F551F59F05F3F71F06B
:104D60004795880F97FB991F61F09F3F79F08795D2
:104D70000895121613061406551FF2CF4695F1DF5B
:104D800008C0161617061806991FF1CF86957105EB
:104D9000610508940895E894BB2766277727CB011F
:104DA00097F908950E94E5260C9498260E948A2679
:104DB00038F00E94912620F0952311F00C94812662
:104DC0000C94872611240C94CC260E94A92670F3FB
:104DD000959FC1F3950F50E0551F629FF001729FA0
:104DE000BB27F00DB11D639FAA27F00DB11DAA1FAF
:104DF000649F6627B00DA11D661F829F2227B00DFC
:104E0000A11D621F739FB00DA11D621F839FA00D86
:104E1000611D221F749F3327A00D611D231F849FD6
:104E2000600D211D822F762F6A2F11249F5750402D
:104E30009AF0F1F088234AF0EE0FFF1FBB1F661FA8
:104E4000771F881F91505040A9F79E3F510580F071
:104E50000C9481260C94CC265F3FE4F3983ED4F367
:104E6000869577956795B795F795E7959F5FC1F715
:104E7000FE2B880F911D9695879597F90895FA0155
:104E8000EE0FFF1F309621053105A1F16115710567
:104E900061F48038BFE39B0749F16894903881053D
:104EA00061F08038BFEF9B0741F099234AF5FF3F3F
:104EB000E1053105210519F1E8940894E795D90138
:104EC000AA2329F4AB2FBE2FF85FD0F310C0FF5FE9
:104ED00070F4A695E0F7F73950F019F0FF3A38F47E
:104EE0009F779F930DD00F9007FC9058089546F040
:104EF0000C94872660E070E080E89FE308954FE718
:104F00009F775F934F933F932F930E943A282F915F
:104F10003F914F915F910E94D2260C94972729F4DC
:104F200016F00C9481260C94CB260C9487260E94B4
:104F3000B126A8F39638A0F707F80F92E8942BE370
:104F40003AEA48EB5FE70E94E8260F920F920F9231
:104F50004DB75EB70F920E948228E8EEF0E00E9403
:104F6000C9274F915F91EF91FF91E595EE1FFF1FCC
:104F700049F0FE57E0684427EE0F441FFA95E1F729
:104F80004195550B0E94FC270F9007FE0C94F027CB
:104F90000895DF93CF931F930F93FF92EF92DF92C9
:104FA0007B018C01689406C0DA2EEF010E94E52691
:104FB000FE01E894A5912591359145915591A6F36F
:104FC000EF010E94CE28FE019701A801DA9469F74B
:104FD000DF90EF90FF900F911F91CF91DF91089597
:104FE0009B01AC0160E070E080E89FE30C947F25BA
:104FF0000C9481260C9423290E94B126D8F399237E
:10500000C9F3940F511DA3F39150504094F059F0FF
:10501000882332F0660F771F881F91505040C1F7E8
:105020009E3F51052CF7880F911D9695879597F90E
:1050300008955F3FACF0983E9CF0BB27869577952E
:105040006795B79508F4B1609395C1F7BB0F58F712
:1050500011F460FFE8CF6F5F7F4F8F4F9F4FE3CF1B
:105060000C94CC2616F00C9423290C948726689473
:105070000C9481260E94B126A8F39923C1F3AEF3C4
:10508000DF93CF931F930F93FF92C92FDD278823C0
:105090002AF02197660F771F881FDAF720E030E0AB
:1050A00040E85FEB9FE3883920F0803E38F021969E
:1050B0008F770E94B728E0E1F1E004C00E94B72892
:1050C000EDE3F1E00E94C9278B01BE01EC01FB2E4C
:1050D0006F5771097595771F880B990B0E942226CF
:1050E00028E132E741E35FE30E94E526AF2D980116
:1050F000AE01FF900F911F91CF91DF910E94CE28BA
:105100000C949826FA01DC01AA0FBB1F9B01AC018D
:10511000BF5728F4222733274427507820C0B7519F
:1051200090F4AB2F0024469537952795011CA39545
:10513000D2F3002071F0220F331F441FB395DAF32E
:105140000ED00C94B62861307105A0E88A07B946E4
:1051500030F49B01AC01662777278827907830963A
:1051600021F0208331834283538308955058BB2715
:10517000AA270E94CE280C9498260E948A2638F0EE
:105180000E94912620F039F49F3F19F426F40C94E4
:1051900087260EF4E095E7FB0C948126E92F0E9408
:1051A000A92658F3BA17620773078407950720F0FA
:1051B00079F4A6F50C94CB260EF4E0950B2EBA2FBD
:1051C000A02D0B01B90190010C01CA01A00111240D
:1051D000FF27591B99F0593F50F4503E68F11A16B9
:1051E000F040A22F232F342F4427585FF3CF46954A
:1051F00037952795A795F0405395C9F77EF41F166C
:10520000BA0B620B730B840BBAF09150A1F0FF0F35
:10521000BB1F661F771F881FC2F70EC0BA0F621F21
:10522000731F841F48F4879577956795B795F79511
:105230009E3F08F0B0CF9395880F08F09927EE0FA6
:105240009795879508959F3F31F0915020F4879569
:1052500077956795B795880F911D9695879597F9DE
:10526000089597FB072E16F4009407D077FD09D018
:105270000E947F2907FC05D03EF4909581959F4FB1
:105280000895709561957F4F0895A1E21A2EAA1B8B
:10529000BB1BFD010DC0AA1FBB1FEE1FFF1FA217E6
:1052A000B307E407F50720F0A21BB30BE40BF50BE3
:1052B000661F771F881F991F1A9469F7609570956C
:1052C000809590959B01AC01BD01CF010895EE0F33
:1052D000FF1F0024001C0BBE0790F691E02D0994DF
:1052E000A29FB001B39FC001A39F700D811D112427
:1052F000911DB29F700D811D1124911D0895AA1B4F
:10530000BB1B51E107C0AA1FBB1FA617B70710F0B0
:10531000A61BB70B881F991F5A95A9F780959095E2
:10532000BC01CD010895F999FECF92BD81BDF89AD7
:10533000992780B50895A8E1B0E042E050E00C94D0
:10534000C729262FF999FECF92BD81BDF89A019702
:1053500000B4021639F01FBA20BD0FB6F894FA9ABD
:10536000F99A0FBE08950396272F0E94A2290E9442
:10537000A129252F0E94A229242F0C94A22901964D
:10538000272F0E94A2290C94A129DC01CB01FC014A
:10539000F999FECF06C0F2BDE1BDF89A319600B48E
:0E53A0000D9241505040B8F70895F894FFCF99
:1053AE0052D02445000000410000DC4400000041C2
:1053BE0052D0A4440000404100005C4400008041F3
:1053CE005C978A440000804152D0A4440000804182
:1053DE000000DC4400008041010000DC44000000BD
:1053EE004100005C440000004100005C44000000ED
:1053FE00410000DC4400000041719DAE430000807E
:10540E00410000C443000080417B14E9430000804A
:10541E00410000C443000080411FD51244000040EB
:10542E00421FD512440000404200D00244000080CA
:10543E00420000000000008040719DAE43000080DD
:10544E00410000C443000080417B14E9430000800A
:10545E00410000C4430000804100D00244000040DF
:10546E004200D00244000040427B14E94300008019
:10547E00420000000000008040719DAE430000809D
:10548E00410000C443000080417B14E943000080CA
:10549E00410000C443000080417B14E943000080BA
:1054AE004200D00244000000420000DC4300000035
:1054BE00420000DC43000000420000C44300000034
:1054CE0042719DAE4300000042719DAE430000004C
:1054DE004200D00244000080427B14E94300008069
:1054EE004278320000DC44000000410AA7CF44009D
:1054FE000000415CFFB8440000004152D0A44400BB
:10550E000000411FD59244000000415C978A440080
:10551E0000004148F176440000004100005C440068
:10552E0000004100005C440000004148F176440058
:10553E000000415C978A44000000411FD592440050
:10554E0000004152D0A444000000415CFFB844006A
:10555E000000410AA7CF44000000410000DC4400D7
:10556E000000410000DC44000000410AA7CF4400C7
:10557E000000415CFFB8440000004152D0A444003A
:10558E000000411FD59244000000415C978A440000
:10559E0000004148F176440000004100005C4400E8
:1055AE0000004100005C440000004148F1764400D8
:1055BE000000415C978A44000000411FD5924400D0
:1055CE0000004152D0A444000000415CFFB84400EA
:1055DE000000410AA7CF44000000410000DC440057
:1055EE0000004100005C44000080411F156944002A
:1055FE0000804148F176440000804100D082440092
:10560E000080415C978A4400008041A4D02444006D
:10561E0000804100005C44000080411FD592440090
:10562E000080415CFFC34400008041000000000088
:10563E000000005CFF4344000080411FD5924400EF
:10564E000080410000DC440000804152D02445001F
:10565E00008041000000000000000000005C4400DB
:10566E0000804148F17644000080415C978A4400F6
:10567E000080411FD592440000804152D0A44400C6
:10568E0000804164000307000C48F176440000C01E
:10569E004000005C440000C04048F176440000C069
:1056AE004000005C440000C04000005C440000006C
:1056BE004100005C440000004148F176440000C007
:1056CE004000005C440000C04048F176440000C039
:1056DE004000005C440000C04000005C440000003C
:1056EE004100005C4400000041E405D51E141FD8A3
:1056FE001E101F0C1F010002040507090B0C0E10D3
:10570E0011131517181A1C1D1F2123242628292BA7
:10571E002D2F3032343537393BE200E900EA00B53F
:10572E0000B600B700CD008301CC008A019201942F
:10573E00012102230224022502260227022A02B395
:10574E0000B4006F007000818283676665646362D7
:10575E006160C1C09796C6C73031F7F6F5F4F3F223
:10576E00F1F0E200E900EA00B500B600B700CD00A6
:10577E008301CC008A0192019401210223022402AA
:10578E002502260227022A02B300B4006F00700021
:04579E008182830081
:00000001FF
