:100000000C94FC030C941B040C941B040C941B0414
:100010000C941B040C941B040C941B040C941B04E4
:100020000C941B040C941B040C94C2240C94F92310
:100030000C94D01B0C941B040C941B040C941B04F8
:100040000C941B040C941B040C941B040C94160AB3
:100050000C941B040C948F1B0C941B040C941B0419
:100060000C941B040C94F0050C941B040C941B04BE
:100070000C941B040C941B040C941B040C941B0484
:100080000C941B040C941B040C941B040C941B0474
:100090000C941B040C941B04E713E7132114211484
:1000A00077141A161A161A169314711582158215DA
:1000B0007C197F19A619B319BA19D9196B1A6B1AB9
:1000C0006B1A6B1A6B1ADC19DE19E319061A261A59
:1000D000291A2C1A4D1A2E1D2E1D411D411D371D8A
:1000E000411D411D411D2E1D2E1D3C1D411D411D4B
:1000F0003C1D0B223222DB233222DB237E22A12273
:10010000DB239323A32307634236B79BD8A71A396F
:10011000685618AEBAAB558C1D3CB7CC5763BD6D55
:10012000EDFD753EF6177231BF000000803F0800FC
:100130000000BE922449123EABAAAA2ABECDCCCC66
:100140004C3E00000080BEABAAAAAA3E0000000000
:10015000BF000000803F0000000000084178D3BBD2
:100160004387D1133D190E3CC3BD4282AD2B3E687F
:10017000EC8276BED98FE1A93E4C80EFFFBE01C470
:10018000FF7F3F00000000006400000000006300EB
:10019000620000005200E3003E003F003400000017
:1001A0000B0029003D000A001B00E400E50055009B
:1001B0005400530048000000280036003200370089
:1001C00010001D00060019001F00000000004E0076
:1001D000450044004D000151430025002700260042
:1001E00024001E00200021003A00E00000004B0027
:1001F00049004C004A00000042002E002D00410042
:10020000230035003B0022001A00000000006100BE
:1002100060005F005700460000000C001300120051
:10022000180014000800150039000000E1005E000D
:100230005D005C00000000002A0030002F0040003C
:100240001C002B003C0017001600000000005B00A3
:100250005A0059005800000031000E0033000F0012
:100260000D00040007000900000000000000560017
:100270004F0051005000E6002C0000003800000044
:100280001100000000000500010000000000010056
:100290000100000001000100010001000100000058
:1002A0000100010001000100010001000100010046
:1002B00001000100005C00000100010001000100DC
:1002C0000100010001000100010000000000010028
:1002D0000100010001000100010001000100010016
:1002E0000100010001000100010001000000010007
:1002F00001000100010000000100010001000100F7
:1003000001000100010001000100000000000100E7
:1003100001000100010001000000010001000100D6
:1003200001000100010001000100000001000100C6
:1003300001000100000000000100010001000100B7
:1003400001000100010001000100000000000100A7
:100350000100010001000000010001000100010096
:100360000100010001000100000000000000010088
:100370000100010001000100010000000100000077
:100380000100000000000100010000000000010069
:100390000100000001000100010001000100000057
:1003A0000100010001000100010001000100010045
:1003B0000100010001000000010001000100010036
:1003C0000100010001000100010000000000010027
:1003D0000100010001000100010001000100010015
:1003E0000100010001000100010001000000010006
:1003F00001000100010000000100010001000100F6
:1004000001000100010001000100000000000100E6
:1004100001000100010001000000010001000100D5
:1004200001000100010001000100000001000100C5
:1004300001000100000000000100010001000100B6
:1004400001000100010001000100000000000100A6
:100450000100010001000000010001000100010095
:100460000100010001000100000000000000010087
:100470000100010001000100010000000100000076
:100480000100000000000100010000000000010068
:100490000100000001000100010001000100000056
:1004A0000100010001000100010001000100010044
:1004B0000100010001000000010001000100010035
:1004C0000100010001000100010000000000010026
:1004D0000100010001000100010001000100010014
:1004E0000100010001000100010001000000010005
:1004F00001000100010000000100010001000100F5
:1005000001000100010001000100000000000100E5
:1005100001000100010001000000010001000100D4
:1005200001000100010001000100000001000100C4
:1005300001000100000000000100010001000100B5
:1005400001000100010001000100000000000100A5
:100550000100010001000000010001000100010094
:100560000100010001000100000000000000010086
:100570000100010001000100010000000100000075
:100580000100000000000100000000000000000069
:10059000000000000000000000000000000000005B
:1005A0000000000000000000000000007E0F00D4EA
:1005B000FFFFFFC7000000780000000000000000FF
:1005C0002A2B2800000000000000000000000000AE
:1005D00000000029000000002C1E342021222434B9
:1005E0002627252E362D3738271E1F20212223248B
:1005F00025263333362E37381F0405060708090A27
:100600000B0C0D0E0F101112131415161718191AC2
:100610001B1C1D2F3130232D350405060708090A40
:100620000B0C0D0E0F101112131415161718191AA2
:100630001B1C1D2F3130354C05010980A10185039C
:1006400019012AB700150126B70095017510810020
:10065000C0050C0901A101850419012AA002150198
:1006600026A002950175108100C005010902A101B3
:100670000901A1000509190129081500250195089E
:10068000750181020501093009311581257F950227
:100690007508810609381581257F95017508810641
:1006A000050C0A38021581257F950175088106C061
:1006B000C00660FF0961A1010962150026FF0095CF
:1006C00020750881020963150026FF009520750832
:1006D0009102C005010906A101050719E029E715E6
:1006E00000250195087501810295017508810105B4
:1006F00007190029FF150026FF00950675088100DF
:1007000005081901290595057501910295017503E3
:100710009101C009027400040100A0FA090400005C
:100720000103010100092111010001224000070518
:10073000810308000A0904010002030000000921E6
:100740001101000122220007058303200001070593
:100750000403200001090402000103010200092131
:10076000110100012247000705820308000A09045D
:1007700003000103000000092111010001223200E1
:100780000705850320000A12011001000000089FE0
:100790000444B90100010200011E0343004F004D53
:1007A0000050004100510020004D00580031003140
:1007B000003800300030000000380343006F006D47
:1007C00000700061007100200043006F006D007038
:1007D000007500740065007200200043006F006D1A
:1007E0000070006F0072006100740069006F006E9D
:1007F000000000040309040011241FBECFEFD0E263
:10080000DEBFCDBF14E0A0E0B1E0E4EAF7E500E030
:100810000BBF02C007900D92A030B107D9F725E0B9
:10082000A0E0B4E001C01D92AF39B207E1F70E9429
:1008300071160C94D02B0C9400005A98529A08957B
:10084000EFE6F0E08081877F8083E0E8F0E0808160
:10085000837F80830895CF92DF92EF92FF926B01A6
:100860007C0120E030E0A9010E94E127811106C04F
:1008700080918000837F8093800039C080918000C8
:10088000886080938000C0920904D0920A04E092AC
:100890000B04F0920C0420E030E040E051E4C7018A
:1008A000B6010E9439299B01AC0160E074E284E743
:1008B0009BE40E94E6276B017C010E9458287093FC
:1008C00087006093860020E030E048E452E4C701EE
:1008D000B6010E94392920E030E048EC52E40E9441
:1008E000E6270E94582870938D0060938C00FF903B
:1008F000EF90DF90CF9008959091640492FF0DC027
:10090000282F2871283019F4877F846006C0282F8B
:100910002471243011F48B7F886093FF0DC0282F41
:100920002871283119F4877E846106C0282F24712C
:10093000243111F48B7E88612091650420FF0DC065
:10094000382F3871383019F4877F816006C0382F0E
:100950003171313011F48E7F886021FF0DC0282F56
:100960002871283119F4877E816106C0282F2171F2
:10097000213111F48E7E886194FD877E089552980E
:100980005A9A85E08A95F1F7000089B182FB8827A1
:1009900080F908951F93CF93DF93CDB7DEB76797A4
:1009A0000FB6F894DEBF0FBECDBF342F4B8B252F73
:1009B0005C8B6D8B7E8B8F8B4E895F896111109262
:1009C000230586E0FE013D96DF01982F1D929A9542
:1009D000E9F73D872E876F87598B488BDE01179685
:1009E00001900D928A95E1F7CE0107960E94851E2F
:1009F00081113EC086E0FE013796DE01119601901E
:100A00000D928A95E1F7FF81E8856A857B856115FE
:100A1000710531F0EF3F31F481E0FF3F19F403C07D
:100A200081E001C080E080FD23C020919F0430E080
:100A3000C9010196877099274091D00450E084172E
:100A4000950779F1F983EA837D836C8396E0929F21
:100A5000D001939FB00D1124A056BB4FFE013196DB
:100A600001900D929A95E1F780939F040E940F1ECA
:100A700016E08091D00490919F048917F9F0189F97
:100A8000C001112480569B4F0E94851E8823B1F01F
:100A90008091D00490E00196877099278093D004CC
:100AA000E8CF0E94342010929F041092D004E9E90C
:100AB000F4E086E0DF011D928A95E9F767960FB6AC
:100AC000F894DEBF0FBECDBFDF91CF911F91089587
:100AD000CF93DF9390E1899FD001112420E030E093
:100AE00080E090E0C1E0D0E0F901EA0FFB1FEE0FDB
:100AF000FF1FE857FE4FE491EE2371F0AE01022E86
:100B000002C0440F551F0A94E2F7FA01E623F723C7
:100B1000EF2B11F0842B952B2F5F3F4F20313105A8
:100B200019F7DF91CF91089520913704309138045F
:100B30002817390771F09093380480933704E091B7
:100B40004605F0914705309721F00084F185E02DAE
:100B500009940895209135043091360428173907F7
:100B600071F09093360480933504E0914605F0913E
:100B70004705309721F00680F781E02D099408950C
:100B8000E0914605F0914705309721F00190F08102
:100B9000E02D099480E0089552985A9A0895559846
:100BA0005D9A85E08A95F1F7000089B185FB882779
:100BB00080F90895CF93DF93EC010E94CF0588233D
:100BC00041F0209731F085E08A95F1F700002197F8
:100BD000F4CFCE01DF91CF91089555985D9A089595
:100BE0001F920F920FB60F9211240BB60F922F93F4
:100BF0003F934F935F936F938F939F93EF93FF93E5
:100C00008091C8005091CE008C71A9F44FB7F89430
:100C10008091340490E09C012F5F3F4F2F71332768
:100C200060913304621731F0FC01ED5EFB4F50839D
:100C3000209334044FBFFF91EF919F918F916F915B
:100C40005F914F913F912F910F900BBE0F900FBE70
:100C50000F901F9018958AE1815051F49FB7F89436
:100C60002091330480913404821312C080E01BC0B1
:100C70003FB7F89420913404909133043FBF291377
:100C8000EDCFEFE9FFE03197F1F700C00000E4CFCE
:100C900030E0F901ED5EFB4F80812F5F3F4F2F71F8
:100CA0003327209333049FBF0895EF92FF920F9351
:100CB0001F93CF93DF93E82E1092CA008091C90052
:100CC000877E8093C9005D98559A0E94CC058FE875
:100CD00091E00197F1F700C000000E941D040E94FE
:100CE000ED0580E197E20E94DA05892B09F486C0C0
:100CF000C0E0D0E011E0F12C01E090E59A95F1F729
:100D0000C7010C2E02C0959587950A94E2F780FFE3
:100D100004C010270E94CC0502C00E941D040E943E
:100D20001321892B09F46AC082E390E00E94DA055E
:100D3000892B09F463C02196C830D105F1F680E50E
:100D40008A95F1F7112319F00E94CC0502C00E9488
:100D50001D040E941321892B09F450C082E390E006
:100D60000E94DA05892B09F449C090E59A95F1F7BC
:100D70000E94CC05C2E3D0E00E94BF04882341F06A
:100D80002097E1F125E02A95F1F700002197F4CFB3
:100D9000CD2BA1F182E390E00E94DA05892B71F15D
:100DA0000E941321892B51F1C2E3D0E00E94BF04BD
:100DB000811108C0209711F185E08A95F1F70000B4
:100DC0002197F4CFCD2BD1F00E94ED050E94CC05E8
:100DD0005598529886E78093CA001092C8001092E6
:100DE000CD001092CC0080E98093C900DF91CF91B3
:100DF0001F910F91FF90EF900C942B060E94ED0530
:100E00000E94CC055598529886E78093CA001092AC
:100E1000C8001092CD001092CC0080E98093C900E8
:100E200080E0DF91CF911F910F91FF90EF90089597
:100E30000F931F93CF93DF93C42FD22FFC01828196
:100E40008823C9F0409352040E94C41B909312045B
:100E50008093110480E28C0F883008F057C0C7706F
:100E600081E001C0880FCA95EAF7DF91CF911F9109
:100E70000F910C94052680915204481330C0809144
:100E80001104909112040E94B51B883C910538F51D
:100E900010E21D0FCD17B9F080E28C0F883040F4BE
:100EA000C77081E001C0880FCA95EAF70E94FA2551
:100EB000183028F581E09D2F977001C0880F9A9512
:100EC000EAF70E940526802F0E94A0261830F0F431
:100ED000D77081E001C0880FDA95EAF70AC080E296
:100EE0008C0F883098F4C77081E001C0880FCA95D4
:100EF000EAF7DF91CF911F910F910C94FA25802F83
:100F0000DF91CF911F910F910C94A026DF91CF918B
:100F10001F910F910895CF93DF93C6E2D4E060E074
:100F2000CE010E947C272196C11588E0D807B9F729
:100F3000DF91CF9108956F927F928F929F92AF929F
:100F4000BF92CF92DF92EF92FF920F931F93CF93B6
:100F5000DF93C0E0D0E000E010E03E0186E2680EE2
:100F6000711C6301C00ED11EE12CF12C4E01800ECC
:100F7000911EF401EE0DFF1DE857FE4FA590B490B1
:100F80006B2DC6010E947C276A2DC60101960E9426
:100F90007C2782E0E80EF11C82E0C80ED11C80E2C2
:100FA000E816F10431F7005E1F4F011581E01807C4
:100FB000C1F6D395C11584E0D80769F6DF91CF91CA
:100FC0001F910F91FF90EF90DF90CF90BF90AF9067
:100FD0009F908F907F906F9008950F931F93CF9362
:100FE000DF93C42FD0E0CC0FDD1F20E2629FC00D45
:100FF000D11D112490E0982F8827C80FD91FCE014A
:1010000086960E946E27082F10E0102F0027CE0131
:1010100087960E946E279801282BC901DF91CF91F6
:101020001F910F910895462F843038F4783028F4BA
:10103000603118F4672F0C94ED0780E090E008957C
:1010400081E08093500468E070E089EB91E00C94BB
:101050008A2081E08093510468E070E089E391E0A8
:101060000C948A2080913801811122C010929A0537
:101070000E942004109254051092550510924905C3
:1010800010924805EAE5F5E080E090E0A0E8BFEBCB
:101090001182108282839383A483B5831782168280
:1010A000389625E0EA39F20799F781E08093380114
:1010B00008958091510481110C94320808950E9482
:1010C00059081092510468E070E089E791E00C94AF
:1010D0008A2062E070E088E291E00E948A202FEF8F
:1010E00081EE94E0215080409040E1F700C0000084
:1010F0000E943208609157056E7F6093570587E024
:1011000090E00C947C2760915705616060935705CF
:1011100087E090E00E947C2762E070E088E191E047
:101120000C948A2080915605811134C080E090E0B3
:101130000E9476278B3E9E4F11F00E94241C87E070
:1011400090E00E946E2780935705EAE5F5E080E085
:1011500090E0A0E8BFEB1182108282839383A48386
:10116000B58317821682389625E0EA39F20799F797
:101170008091560581110CC00E942004279A82E0BC
:10118000809380008AE18093810081E080935605FE
:101190000C94320808957F928F929F92AF92BF92E3
:1011A000CF92DF92EF92FF920F931F93CF93DF9333
:1011B0004B015C016A018091570580FFAEC08091B0
:1011C0005605811102C00E94920820E030E0A9017A
:1011D000C501B4010E94E12787FF04C0B7FAB094AB
:1011E000B7F8B09470909A05072D10E0E8012197A8
:1011F00043E0000F111F4A95E1F7E12CF12CCF3F9E
:10120000FFEFDF07D9F128E0E21AF108F801EE0D4F
:10121000FF1DE65AFA4F2281338144815581C50171
:10122000B4010E94E127811127C08E0133E0000F35
:10123000111F3A95E1F7065A1A4F80919A0590E0EE
:101240000197C817D9070CF068C0219688E0F8010B
:101250003896D80101900D928A95E1F70E94C41B3F
:10126000F8019187808782869386A486B586D78683
:10127000C686085F1F4FE1CF2197C1CF81E0870D60
:10128000893020F580939A0581E08093080480934B
:101290005505C0919A05D0E021970E94C41BFE011C
:1012A00023E0EE0FFF1F2A95E1F7E65AFA4F9183EC
:1012B000808382829382A482B582D782C6820E9472
:1012C000C41B80913801882341F113C088E08093CA
:1012D0009A058AE595E028E0FC013896DC0101904A
:1012E0000D922A95E1F7089625E08239920799F741
:1012F000CBCF80916F00886080936F0080918000D9
:1013000088608093800080915505882321F00E9499
:101310005D200E942B0410923801DF91CF911F9124
:101320000F91FF90EF90DF90CF90BF90AF909F9084
:101330008F907F900895CF92DF92EF92FF920F935C
:101340001F93CF93DF936B017C0120E030E0A90174
:101350000E94E12787FF04C0F7FAF094F7F8F094B1
:1013600080915505882309F458C080915605811154
:1013700002C00E9492080AE515E0C7E0D0E0F8013B
:1013800022AD33AD44AD55ADC701B6010E94E12792
:1013900081112BC083E0CC0FDD1F8A95E1F7C65A7F
:1013A000DA4F1982188280E090E0A0E8BFEB8A83D0
:1013B0009B83AC83BD831F821E82AC01BD01F5E01F
:1013C000C239DF07D1F088E0FE013896DE010190D6
:1013D0000D928A95E1F7198618864A875B876C8794
:1013E0007D871F861E862896EACF2197085011090F
:1013F000CF3F8FEFD80719F610C0C1E0C0930804A3
:1014000080919A05815080939A05811106C00E94AF
:101410002004C093380110925505DF91CF911F91A0
:101420000F91FF90EF90DF90CF9008951F920F9251
:101430000FB60F9211240BB60F924F925F926F92DC
:101440007F92AF92BF92CF92DF92EF92FF920F9373
:101450001F932F933F934F935F936F937F938F933C
:101460009F93AF93BF93CF93DF93EF93FF938091BD
:101470000D0490910E04A0910F04B09110040196F8
:10148000A11DB11D80930D0490930E04A0930F0431
:10149000B093100460910D0470910E0480910F04BC
:1014A000909110040E9487286B017C0120E030E0BD
:1014B00040E85CE36091090470910A0480910B0498
:1014C00090910C040E9439299B01AC01C701B6011F
:1014D0000E94E12787FD42C110920D0410920E0474
:1014E00010920F041092100480915505811105C0CF
:1014F000C0915405CC2309F420C10E94C41BEC0107
:1015000080915405811102C010E0E3C080914A052A
:1015100090914B050E94B51B2091480530914905DB
:101520008217930788F380914A0590914B050E949A
:10153000B51B20914805309149057C01E21AF30A58
:10154000D0934B05C0934A0500914C0510914D0571
:10155000C801019690934D0580934C050E94C41BD1
:10156000A0904F05B090500580914C0590914D058D
:101570008A159B0560F0C0914E05CC2329F010928E
:101580004D0510924C0503C00E943208D6C08091D0
:101590005305C0914C05D0914D05C0905105D09098
:1015A0005205811131C0F80153E0EE0FFF1F5A952B
:1015B000E1F7EC0DFD1DDE0163E0AA0FBB1F6A958C
:1015C000E1F7AC0DBD1D2D913D914D915C91608178
:1015D0007181828193810E94E127811115C081E090
:1015E000809353054FE050E060E070E0CB010E9433
:1015F000CB0810934D0500934C058FE090E090933D
:1016000049058093480564C0109253058E0133E06C
:10161000000F111F3A95E1F70C0D1D1DF8016481B3
:101620007581868197810E9458289B01A0E6BAEEB9
:101630000E94D22720E03EE140E050E00E94B02727
:10164000F1E0AF1AB108412C4EE1542E612C712CFF
:101650002E153F0550F0D0934D05C0934C05E21672
:10166000F306E0F0C1E0D0E01CC0085F1F4FCA15D0
:10167000DB0588F7E21AF30A2196F8016481758187
:10168000868197810E9458289B01A0E6BAEE0E94AD
:10169000D227A30192010E94B027DACFE901CE1927
:1016A000DF0980914C0590914D0523E0880F991F2B
:1016B0002A95E1F7F601E80FF91F608171818281B7
:1016C0009381AE010E94CB08D0934905C093480591
:1016D00011E080915505882341F1809158058111D1
:1016E00011E0CAE5D5E0E12CF12C80919A0590E05B
:1016F000E816F906D4F48E819F8101978E3F9F4FA3
:1017000078F4888199810E94B51B2E813F818217D0
:10171000930730F06A817B818C819D810E949B09B7
:101720002FEFE21AF20A2896E0CFC0910804CC23EA
:1017300019F01092080401C0C12F80915505811144
:1017400007C080915405811103C00E94200406C087
:10175000CC2321F00E945D200E942B04FF91EF9189
:10176000DF91CF91BF91AF919F918F917F916F91B9
:101770005F914F913F912F911F910F91FF90EF90AB
:10178000DF90CF90BF90AF907F906F905F904F9021
:101790000F900BBE0F900FBE0F901F901895682FE3
:1017A00070E065547109072E000C880B990B0E949C
:1017B000892820E030E040E451E40E94E6279B01C4
:1017C000AC0160E070E080E090E40E94A62920E097
:1017D00030E04CED53E40E94392908950E94CF0B6C
:1017E0004FEF5FEF0C94CB08F894E82FE295EF7081
:1017F000F0E031A1282F2F7081E090E001C0880F28
:101800002A95EAF7982F9095932391A392A1892B7B
:1018100082A3789408957F928F929F92AF92BF9205
:10182000CF92DF92EF92FF920F931F93CF93DF93AC
:1018300084E5A82E84E0B82E92EAE92E93E0F92EF2
:101840008501C0E0D0E0712C88248394912CA701FD
:10185000D7018C91F894E82FE295EF70F0E021A188
:101860008F70B40102C0660F771F8A95E2F7CB0133
:10187000922F982B91A392A18095892382A378948B
:1018800000C0EAEAF3E020E030E0C12CD12C619105
:10189000A62FA295AF70B0E090968C9190E06F70FB
:1018A00002C0959587956A95E2F780FD08C0C4014E
:1018B000022E02C0880F991F0A94E2F702C080E04E
:1018C00090E0C82AD92A2F5F3F4F20313105F9F621
:1018D0007FEFE71AF70ADA018C910E94F40BC73008
:1018E000D10519F0B0EABA95F1F7F801808191813C
:1018F000C816D90621F0D182C08281E001C080E003
:10190000782A21960E5F1F4FC830D10509F09FCF6E
:10191000772049F081E0809304040E94C41B9093D7
:10192000030480930204809104048823B9F0809119
:101930000204909103040E94B51B069778F0EDE72E
:10194000F4E084E694E0D5012D913D915D01219371
:1019500031938A179B07B9F710920404809107040A
:10196000811125C08091050490910604009739F4F7
:101970000E94C41B909306048093050418C00E9423
:10198000B51B8D32914098F08091570580FF06C0BD
:1019900063E070E080E091E00E948A200E94C41B16
:1019A00090934B0580934A0581E0809307048091D2
:1019B0004D04882309F444C08091490490914A045D
:1019C000009781F40E94C41B90934A0480934904B9
:1019D00020914B0430E02115310571F480914C04C5
:1019E00090E00BC00E94B51B2091FA023091FB02DF
:1019F0002817390738F324C0C9010197F901E75CBA
:101A0000FB4FC08120915104222341F0FC01E75C8F
:101A1000FB4F80810E94CF0B0E949B098091510453
:101A2000882319F08C2F0E94EE0B80914B0490E0DC
:101A3000019660914C0470E00E94982B80934B04B7
:101A4000872DDF91CF911F910F91FF90EF90DF9045
:101A5000CF90BF90AF909F908F907F900895CF933D
:101A6000DF930E941308EC018238910559F1A0F42C
:101A70008133910509F473C040F48932910509F46A
:101A800067C08A9709F472C084C08533910509F450
:101A900058C0C997B9F07DC0833E910571F138F403
:101AA000803E9105B1F0823E910511F172C0863EF3
:101AB0009105B9F1873E9105C9F1843E910509F080
:101AC00068C024C08091640480FD5DC081FD5BC05E
:101AD00060C08091640480FD50C08091650480FFE7
:101AE00036C18091640484FD30C1C3EED0E02FC1C3
:101AF0008091640482FF2BC1F4CF8091640482FD45
:101B00003FC08091650480FD3EC0EBCF80916504AD
:101B100081FF1DC18091640484FD17C1C7EED0E030
:101B200016C18091640483FF12C1F4CF80916404D4
:101B300083FD2CC08091650481FFECCFC4EED0E022
:101B400006C18091640485FF02C1C9E2D0E0FFC0F4
:101B50008091640485FFFBC0C5E3D0E0F8C08091AC
:101B6000640486FFF4C0CAE2D0E0F1C0809164044E
:101B700086FFEDC0C1E3D0E0EAC0C9E3D0E0E7C032
:101B8000C2EED0E0E4C0C0EED0E0E1C0C6EED0E0EE
:101B9000DEC0C11582E5D80708F066C0C11591E521
:101BA000D90728F0DC2FCC27C16FD06AD0C0C83E3F
:101BB000D10560F5C03ED10508F0C9C0C83AD105CD
:101BC000B0F4C53AD10540F0C55AD0E0C253DC4F5D
:101BD000C881D0E0D064BBC0C130D10509F4B7C022
:101BE00008F4B3C0C430D10508F4AFC0B0C0CF3BD7
:101BF000D10508F0AAC0C85AD0E0CC0FDD1FCF52E3
:101C0000DC4F0990D881C02DD464A1C0C11520E556
:101C1000D207E0F0CE0174E0969587957A95E1F7CA
:101C200083709C2F937021E030E002C0220F331F9D
:101C30009A95E2F73C68382BCF70C695C69580E23E
:101C4000C89FE0011124C22BD32B81C0C11580E4B1
:101C5000D80718F0DF70D06A7AC0CE019A95811546
:101C60009F4108F474C071C0C11586E5D807F0F52E
:101C7000C11595E5D90750F08C2F0E947C048F7117
:101C8000C82FD0E0DC2FCC27D06261C0C11524E57D
:101C9000D20728F0DC2FCC27C46FD06A58C09E0131
:101CA000237033278C2F86958695C115D34578F4FC
:101CB000C1E0D0E002C0CC0FDD1F2A95E2F720E2A0
:101CC000829FC0011124C82BD92BDC6840C0C1E021
:101CD000D0E002C0CC0FDD1F2A95E2F720E2829F00
:101CE000C0011124C82BD92BDA6831C0C1152AE5EF
:101CF000D207E8F4C11589E5D80780F08C2F8F70E2
:101D00000E947C0494E0D695C7959A95E1F7CF7030
:101D1000D0E0DC2FCC27D069C82B19C0C11598E5BD
:101D2000D90798F0DC2FCC27C06FD06A10C0CE0145
:101D300090568115904248F48D2F8F710E947C043B
:101D4000DD27D0628F71D82B02C0C0E0D0E0CE0179
:101D5000DF91CF91089581FB222720F982FB9927FB
:101D600090F980FF02C05F9A01C05F98222311F0B2
:101D7000709A01C07098992311F0719A0895719822
:101D800008953F924F925F926F927F928F929F92AF
:101D9000AF92BF92CF92DF92EF92FF920F931F9379
:101DA000CF93DF93CDB7DEB7A8970FB6F894DEBF19
:101DB0000FBECDBFFC018081918123813481232B13
:101DC00031F09F3F31F491E08F3F19F403C091E06F
:101DD00001C090E090FD6DC77F0185E0DE01949623
:101DE00001900D928A95E1F7D70112962C918CA162
:101DF0009DA1222349F00E94CF1C182F682F8CA18F
:101E00009DA10E94711D03C00E94451D182F6CA149
:101E10007DA1812F0E9413088C01F70192819923E3
:101E200009F4F5C0980122513F452031310508F0F1
:101E30001DC18FEF97E00E946E278111F2C0025101
:101E400056E2852E54E0952E002379F08114F8E0B7
:101E50009F0609F4E6C0C4010E946E27811101C0EB
:101E600001501FEF811A910AEFCF19821A821B824B
:101E70001C82442443944AE0342E84010F5F1F4F98
:101E8000C4010E946E2789831A82882309F4C9C07D
:101E90009FEF980F933060F48A83498222E0820E8C
:101EA000911CC8010E946E278B83811102C0B9C0AA
:101EB00048018E010F5F1F4FD8012C912223E9F2B8
:101EC000213009F04FC011968C91813049F468019E
:101ED000B2E0CB0ED11CF80182810E94A0260BC07B
:101EE000823059F46801F2E0CF0ED11CD80112966D
:101EF0008C910E944726860187C0833049F468018F
:101F0000B2E0CB0ED11CF80182810E940F26F3CFE4
:101F1000843019F00F5F1F4F77C0D80112962C91B3
:101F20000E5F1F4F80E090E030E0205331092A30EF
:101F3000310568F4389EA001399E500D1124C90165
:101F4000840F951F0F5F1F4FF8012081EDCF009781
:101F500009F45AC0AFE9BFE01197F1F700C00000E3
:101F60000197F5CFE22FF0E0E854FA4F5490822F1A
:101F700086958695869590E0FC01E855FA4F649029
:101F80002770712C022E02C0759467940A94E2F7B0
:101F9000B1E06B227724FC01E856FA4FA490B12CF3
:101FA000022E02C0B594A7940A94E2F7E1E0AE22B3
:101FB000BB24FC01E857FA4FC490D12C02C0D59441
:101FC000C7942A95E2F7F1E0CF22DD246114710471
:101FD00019F081EE0E944726A114B10419F086EE93
:101FE0000E944726852D0E94A026AB2819F086EE78
:101FF0000E940F26672819F081EE0E940F26CD2837
:1020000019F08CE20E94A0260F5F1F4F55CF0031C0
:10201000FFE51F0709F044C681E00E94A61D0E944B
:102020003F2080912105877009F443C6D70112969D
:102030008C91882309F43DC682E0A8960FB6F894E7
:10204000DEBF0FBECDBFDF91CF911F910F91FF90EB
:10205000EF90DF90CF90BF90AF909F908F907F9048
:102060006F905F904F903F900C94CB1D0031BFE577
:102070001B0711F481E005C00131EFE51E0721F4D3
:1020800082E00E94E41DCBCF0D31FCE51F0731F447
:10209000992309F44EC00E948308C3CF0E312CE56A
:1020A000120731F4992309F444C00E946908B9CF9A
:1020B0000F313CE5130739F49923D9F18091570585
:1020C00080FDF3CFE8CF0A325CE5150749F4992388
:1020D00081F11092590564E070E089EF91E024C02D
:1020E0000B328CE5180799F306322CE51207F9F04C
:1020F0000732ACE51A0709F4F4C00832BCE51B0747
:1021000009F4E5C00C32ECE51E0709F4F0C00D320D
:10211000FCE51F0709F0F1C0992359F01092500413
:1021200068E070E089E192E00E948A207ACF911104
:10213000D5C040915104411105C0809150048823BD
:1021400009F405C1992309F44BC0003E110561F45F
:102150000E94590881E080934F0410924E0410921F
:102160004D0410924C045DCF023E110571F40E94A3
:10217000590880914F04882319F081E080934E0420
:1021800010924F0410924D044CCF033E110591F470
:1021900080914E04882321F10E94590810924F0427
:1021A00081E080934D0410924B0410924A041092E7
:1021B000490437CF0235110531F48091FA0290912C
:1021C000FB020A9708C00135110551F48091FA020B
:1021D0009091FB020A969093FB028093FA0221CF22
:1021E0008091F90281110DC0D70111968C91119740
:1021F00028E030E0281B31098C91805FD82EBCE0AC
:102200001DC0813069F4F701818128E030E0281B8E
:102210003109D22EDD0CDD0CD20E80818D5C31C0F7
:10222000823081F4D70111968C91119728E030E02B
:10223000281B31098C918D5CD82EB7E02B9FD00CD8
:10224000112423C08330F9F483E2EFE7F3E0DE01E9
:10225000119601900D928A95E1F7F7018081FE01B8
:10226000E80FF11DD70111968C9128E030E0281B72
:102270003109D0848D2DBCE02B9F800D112439E0D5
:10228000D32ED80E02C02CE0D22E9923A1F04423E5
:1022900019F08D2D0E94EE0B80914F04882391F050
:1022A00080914C04E82FF0E0E75CFB4FD0828F5F19
:1022B00080934C0407C0442329F08D2D0E94CF0B3E
:1022C0000E949B090F3F110508F041C0AACE992337
:1022D00009F42FCF80915104811106C00E94290872
:1022E000A0CE992309F425CF0E945F089ACE9923A6
:1022F00009F41FCF0E94200894CE0E322CE512075D
:1023000041F4992309F415CF80915004811106CF2F
:10231000F1CF09323CE5130709F00BCF992309F4FB
:1023200008CF0E9459082091F90230E02F5F3F4FFB
:10233000237033272093F90248E2429FC001439F54
:10234000900D112465E070E0875A9D4FEDCE033F5C
:102350003CE5130799F406E221EE40EE63EF7CE5DD
:1023600009C0073DACE51A0711F506E221EE41EE82
:1023700067ED7CE5C7010E94180753CE043F5CE57A
:10238000150708F069C1083D8CE5180731F407E22C
:1023900025EE45EE68ED7CE5EDCF093D9CE519079E
:1023A00001F708E221E045EE69ED7CE5E3CFF701B6
:1023B0008281882309F485C1109252040230FCE521
:1023C0001F0708F468C106312CE5120738F09801A0
:1023D0002A5F3C452930310508F05DC10E94131C7D
:1023E000909365048093640400313CE5130709F47D
:1023F000CAC008F042C008308CE5180709F4A0C034
:10240000F0F40430ACE51A0709F486C068F4023031
:10241000ECE51E0709F47CC003301C4509F00CC133
:102420008091640482607BC006302CE5120709F4B9
:102430007FC008F081C080916404886070C00C3057
:102440005CE5150709F48BC068F40A309CE51907B0
:1024500009F47AC008F07FC00E943420809164049F
:1024600080685DC00E30BCE51B0709F47CC008F035
:1024700086C0809164048B7F52C00B3FFCE51F0730
:1024800009F450C020F503313CE5130709F483C07B
:1024900078F401318CE5180709F479C002311C4544
:1024A00009F0CAC00E943420809164048F7737C03D
:1024B0000531ACE51A0709F47CC008F4ACC00A3F4A
:1024C0001C4509F0B9C08091650481602EC00F3FA2
:1024D000FCE51F0709F466C070F40D3F3CE51307E7
:1024E00009F449C008F443C08091650482608160AA
:1024F0008093650484C001308DE5180709F497C006
:1025000008F470C002301D4509F096C060E090C02C
:1025100080916404816003C080916404846080932E
:1025200064048AC08091650482608093650484C0DD
:10253000809164048061F3CF809164048062EFCF66
:10254000809164048064EBCF80916404886084602F
:10255000809364043DC0809164048E7FE0CF8091BD
:1025600064048D7FDCCF80916404877FD8CF809115
:1025700065048E7FDACF809165048D7FD6CF809100
:1025800064048F7ECCCF809164048F7DC8CF80910E
:1025900064048F7BC4CF80916404877F8B7F80939A
:1025A00064041BC0809165048D7F8E7F80936504D9
:1025B0002BC08091640482FB222720F991E09227AE
:1025C00090FB82F990FB83F980936404992329F0AE
:1025D00064E070E08CE393E01BC062E070E08CE0AC
:1025E00093E016C080916504982F909591708E7F2E
:1025F000892B90FB81F980936504992329F064E08D
:1026000070E08CE193E004C062E070E08CEF92E057
:102610000E948A2011C00E9434208091640487FBAC
:10262000222720F991E0922790FB87F978CF61E08B
:102630008EE090E00E947C27609164041091650414
:1026400084E090E00E947C27612F81E290E00E946C
:102650007C270E943420E5CC053FBCE51B0731F404
:1026600006E221EE42EE65EF7CE584CE053FECE527
:102670001E0730F407E225EE44EE64EF7CE57ACEE7
:10268000063FFCE51F0709F092CE07E225EE46EE75
:1026900066EF7CE56FCE06312CE5120751F580918F
:1026A00024058A7A91E009F490E0909353048823FA
:1026B00011F065E301C069E281E994E00E94F91B31
:1026C00015C006311C45F1F580915304882309F4A7
:1026D000EEC285E3E1E9F4E027E934E09281891371
:1026E00001C0128231962E173F07C1F70E94941C39
:1026F00098CC0115BCE51B0731F00E3D1C4511F5CA
:102700000E94241C8ECC0E9434200E9459080E94F2
:10271000C41B8C0163E070E08CE593E00E948A208A
:10272000C8010E94B51B8A3F910538F48FE99FE0EC
:102730000197F1F700C00000F3CF0E9432080E9419
:102740005D1B6FCCD7010D911C91882349F0C80106
:102750000E94CF1CD82E682FC8010E94711D04C092
:10276000C8010E94451DD82EB8018D2D0E942F0D45
:102770008C01982EF701B280A580A2949FE0A92237
:1027800080912105877099F0BB2089F0812F807F8F
:10279000803421F080E2800F883048F082E00E948F
:1027A000CB1D809121058770DD24D3948111D12C1C
:1027B000C12EC2948FE0C8228C2D90E08C30910500
:1027C00008F038C2FC01E45BFF4F0C94AC2B812F66
:1027D000807F1F70882311F01295107FBB20B9F005
:1027E000112309F412C280E2800F883010F091109A
:1027F00006C080912405182B1093240505C08091F4
:102800002305182B109323050E94941CFEC1802FD2
:102810000E940F26112309F40DC2005E10950830A6
:1028200010F0911006C08091240518231093240500
:1028300005C0809123051823109323050E94941C42
:10284000F9C1812F807F1F70803211F01295107FA7
:10285000992021F0F1E09F16E1F02AC0BB2081F021
:1028600080912505AA2051F001E0A01207C0182B85
:10287000181709F4DFC110932505DCC1812B10C0A6
:10288000AA2021F021E0A21609F4D4C10E948E1CD6
:102890002AC0BB2041F035E03A1508F4CBC1812FA6
:1028A0000E940526C7C154E05A1508F4C3C11BC0D5
:1028B000BB2061F0AA2099F3D70115968C9115974A
:1028C00080FFA3C18F7015968C93E9CFAA2059F091
:1028D000093309F0ACC1BFEFE7EEF3E0B150E040DF
:1028E000F040E1F7A2C1812F0E94FA25A3C1812FF8
:1028F00086958695837019F0813059F09BC1BB2075
:1029000019F0C801937002C080E090E00E94AA050F
:1029100099C1BB2019F0C801937002C080E090E01B
:102920000E9494058FC1812F837009F069C0B11096
:1029300085C1902F929596959770990F990F802F3A
:102940008F70882E912CA12CB12C092E04C0880CDC
:10295000991CAA1CBB1C0A94D2F704FF12C04FE0BA
:1029600050E060E070E004C0440F551F661F771F01
:102970009A95D2F7DB01CA0180959095A095B09504
:1029800003C080E090E0DC0116951695412F43705E
:10299000423019F1C8F400912605109127052091C5
:1029A000280530912905413059F088299929AA290B
:1029B000BB29BC01CD0160237123822393230AC06C
:1029C000802A912AA22AB32ABC01CD01682979293B
:1029D0008A299B290E94051E31C188299929AA2983
:1029E000BB290091260510912705209128053091DB
:1029F0002905BC01CD016027712782279327EACFE3
:102A0000BB2019F0812F817001C08695882309F4BD
:102A100015C1902F929596959770990F990F802FC9
:102A20008F70882E912CA12CB12C092E04C0880CFB
:102A3000991CAA1CBB1C0A94D2F704FF12C04FE0D9
:102A400050E060E070E004C0440F551F661F771F20
:102A50009A95D2F7DB01CA0180959095A095B09523
:102A600003C080E090E0DC0116951695412F43707D
:102A70004230D9F068F500919B0510919C0520919A
:102A80009D0530919E05413059F088299929AA2940
:102A9000BB29BC01CD0160237123822393231EC077
:102AA000802A912AA22AB32A13C088299929AA29FF
:102AB000BB2900919B0510919C0520919D053091AB
:102AC0009E05BC01CD01602771278227932706C090
:102AD000BC01CD01682979298A299B290E949C1D66
:102AE000ADC01F70BB2039F0812F0E94E41D802FE4
:102AF0000E940526A3C0802F0E94FA25812F0E94E4
:102B0000A61D9CC0802F22EF921609F440C0291503
:102B100038F030EF931661F051EF951699F170C0CF
:102B200093EF9916D9F1A4EF9A1609F44EC068C034
:102B3000BB2019F1B4E0BA1508F47CC01F7181E024
:102B400090E0A0E0B0E0AC01BD0104C0440F551F0F
:102B5000661F771F1A95D2F780919B0590919C056F
:102B6000A0919D05B0919E058A019B010827192718
:102B70002A273B27C901B80125C025E02A1508F4FA
:102B800059C0DCCFBB2029F0812F8F712CC0BB2016
:102B9000D9F3812F8F710E94A61D4CC0BB2079F004
:102BA0001F7181E090E0A0E0B0E0BC01CD0104C065
:102BB000660F771F881F991F1A95D2F703C060E030
:102BC00070E0CB010E949C1D35C0BB2079F01F71C5
:102BD000812F0E94E41D38E0139FC00111248360FF
:102BE00080932105812F0E94E41D24C081E00E9472
:102BF000CB1D51E05A15F0F482E00E94CB1D1AC0A3
:102C0000BB2039F0AA2009F4BFCF802F0E944726AD
:102C100011C0AA2009F4BDCF893349F48FEF97EE94
:102C2000A3E081509040A040E1F700C00000802F59
:102C30000E940F2688EF8C0D843020F40E94C0057E
:102C40000E94AB0EDD20A9F18091210580FD31C0ED
:102C5000F70112828595859585950E94E41DC7012F
:102C60000E94C10E80912105859585958595A89630
:102C70000FB6F894DEBF0FBECDBFDF91CF911F918D
:102C80000F91FF90EF90DF90CF90BF90AF909F900B
:102C90008F907F906F905F904F903F900C94A61D07
:102CA00001312FE5120709F0EFC982E0B6C989E2C8
:102CB00011CDA8960FB6F894DEBF0FBECDBFDF9141
:102CC000CF911F910F91FF90EF90DF90CF90BF9029
:102CD000AF909F908F907F906F905F904F903F90BC
:102CE0000895CF93DF93CDB7DEB7AE970FB6F894C4
:102CF000DEBF0FBECDBF84B7877F84BF0FB6F89409
:102D0000A8958091600088618093600010926000B7
:102D10000FBE90E080E80FB6F89480936100909326
:102D200061000FBE85B7806885BF85B7806885BFA5
:102D300085ED9AE190930104809300040E94412460
:102D40000E9460248091E20084608093E200789485
:102D5000809137058823A1F01091E9001F709091B0
:102D6000EC00892F817090FD80E8182B1092E9000B
:102D70008091E80083FD0E9427211F701093E900D5
:102D800082E084BD93E095BD9AEF97BD80936E007D
:102D900002EA13E0EAEAEE2EE3E0FE2EF80181916A
:102DA0008F010E94F40BE016F106C1F70AEA13E066
:102DB0007AEBE72E73E0F72EF80181918F010E94E4
:102DC000F40BE016F106C1F7E4E5F4E084E694E0E4
:102DD000ADE7B4E0119211921D921D928E179F07DC
:102DE000C9F70E940B0C8FE39CE90197F1F700C033
:102DF00000000E940B0C80917D0490917E0495FF51
:102E000017C06FEF82E290E00E947C276FEF83E2B1
:102E100090E00E947C276FEF84E290E00E947C2784
:102E20006FEF7FEF80E090E00E949A270E945D1B89
:102E300080E090E00E9476278B3E9E4F11F00E942A
:102E4000241C579A5F98689A7098699A71980E94A2
:102E5000920882E290E00E946E27813281F483E240
:102E600090E00E946E27893051F484E290E00E9445
:102E70006E2791E0873109F090E0892F01C080E052
:102E800080FF77C30E94ED050E94CC0555985298AB
:102E900086E78093CA001092C8001092CD0010926D
:102EA000CC0080E98093C900FFEF23ED80E3F1506F
:102EB00020408040E1F700C000008FEF0E945506DF
:102EC0000E942B060E942B0684EF0E94550680E08C
:102ED00090E00E9476278B3E9E4F11F00E94241CAA
:102EE00082E090E00E946E2780936C040E94131C85
:102EF000909365048093640483E090E00E946E27C1
:102F0000682F70E080E090E00E94051E84E793E067
:102F10009093470580934605CE0101967C012E01D2
:102F200091E1490E511C80913705853009F04BC065
:102F300080913705853009F040C080913705843095
:102F400049F180E00E94AB0E0E94320810926604A4
:102F5000E8E1F0E020E40FB6F894A895E093600073
:102F60000FBE2093600083B7817F846083BF83B7E7
:102F7000816083BF7894889583B78E7F83BF0FB6B7
:102F8000F894A89580916000886180936000109209
:102F900060000FBE80913605882309F4C9CF0E94D6
:102FA0000B0CEDE7F4E081919191892B09F0BBC204
:102FB00084E0ED38F807B9F7BBCF0E9434200E94B7
:102FC000C0050E94AB0E0E940B0C882359F08FB7EE
:102FD000F89440918D0450918E0460918F0470910B
:102FE00090048FBFEDE6F4E0FEA7EDA78DE794E037
:102FF0009CA78BA700E010E0202EEBA5FCA5C190BC
:10300000D190FCA7EBA7EDA5FEA561907190FEA75E
:10301000EDA76C247D2461147104B1F40F5F1F4F80
:103020000830110549F78FEF8EA38FA318A60E94D1
:10303000C41B8160782F9AA789A74EA15FA168A5BC
:103040008AA50E94CA0455C0B601802F0E94680557
:103050005C0101978A219B21892B09F47CC26DE7D1
:10306000862E64E0962E312C321008C03394F2E0A4
:103070008F0E911C28E03212F7CF6DC2F4016081EF
:103080007181832D0E9468058A219B219C0121501A
:10309000310982239323892B49F3C0CF8F5FAA0C78
:1030A000BB1C803109F4BACF93012A213B21232B89
:1030B000A9F389A32AA2CA20DB2081E0CD2809F444
:1030C00080E08BA30E94C41B8160782F9DA38CA3FA
:1030D00049A15AA16BA18DA10E94CA04000F111F22
:1030E000F801E359FB4F80819181A826B926B1826E
:1030F000A0828BEE0E9455068A3F09F0A9C00E946B
:103100002B06809341050E942B06809342050E9466
:103110002B06909142052091410591110CC081111F
:103120000AC030914405311106C030916A0432273B
:10313000377009F483C020936A04322F307424FF5F
:1031400007C031110AC0903841F097FD09C005C091
:10315000311105C097FF04C002C091E801C09FE78C
:103160009093420525FF07C027FD0AC0803841F033
:1031700087FD09C005C027FD05C087FF04C002C048
:1031800081E801C08FE7922F977090934105819558
:10319000809343058091690422FF27C0811109C0F3
:1031A0000E94C41B909368048093670481E080931D
:1031B00069049091420580914305911102C08823D2
:1031C000B1F122E02093690487FD8F5F8595819599
:1031D00080934405892F97FD8F5F859580934505E2
:1031E000109242051092430522C08130F1F4809183
:1031F0006704909168040E94B51B8C329140A8F43A
:10320000809141058460809341050E9406212FEF43
:1032100081EE94E0215080409040E1F700C0000032
:10322000809141058B7F80934105109269048091C4
:1032300041058B7F809341050E9406211092420533
:1032400010924305109244051092450510924105D5
:103250000E94C00590916B04891731F00E94C0054F
:1032600080936B040E94AB0E80913705843009F087
:103270005ACE8093E9008091E80082FF54CE80917D
:10328000E80085FF23C00E949B2581111DC030E20C
:10329000C32ED12C8E010F5F1F4F09C08091F1000A
:1032A000F80181938F01F1E0CF1AD10869F0809184
:1032B000E80085FDF3CF8091E8008B778093E800EC
:1032C0000E949B25882399F391E001C090E08091B2
:1032D000E8008B778093E800992309F424CEE981F4
:1032E0008E2F90E0FC013197E331F10508F0F3C037
:1032F000E85AFF4F0C94AC2B1A8289E062C08A8195
:10330000823009F42DC1833089F0813009F0E3C0A7
:103310002FB7F89480918D0490918E04A0918F0422
:10332000B09190042FBFBB83AC8322C0FE013196C5
:10333000ADE7B4E08C9111969C911197129692830F
:10334000838332964E165F06A9F7C7C08A81823002
:1033500009F0C1C06B817C818D819E810E94B52B5B
:1033600085E290E023C04C816B818A810E94ED0749
:103370009D83FDC00D811E811027012710278C81A0
:103380009B81CA80D12CDC2CCC2420E2929FC00CE3
:10339000D11C1124C80ED11CC80ED11C612FC6012E
:1033A00086960E947C27602FC60187960E947C2704
:1033B00094C00E949B0791C080E14CC083E08A8347
:1033C0008AED8B838AC00A811B8110270127102771
:1033D000AC80B12C6701C8018A5D9B4F96012E1904
:1033E0003F092A153B0508F078C00A3DE3E01E07B7
:1033F00028F40E946E27F601848302C0F60114822D
:103400000F5F1F4FFFEFCF1ADF0AE5CF0A811B8145
:10341000102701271027AC80B12C6701C8018A5DF5
:103420009B4F96012E193F092A153B0508F055C000
:103430000A3D23E0120720F4F60164810E947C27F4
:103440000F5F1F4FFFEFCF1ADF0AE8CF0E948B07F5
:1034500044C084E08A8341C00A811B811027012770
:103460001027AC80B12C6701C801869696012E19F1
:103470003F092A153B0588F5011524E0120728F4B9
:103480000E946E27F601848302C0F60114820F5F4A
:103490001F4FFFEFCF1ADF0AE7CF0A811B811027EA
:1034A00001271027AC80B12C6701C80186969601D0
:1034B0002E193F092A153B0580F4011524E0120757
:1034C00020F4F60164810E947C270F5F1F4FFFEFFD
:1034D000CF1ADF0AEACF8FEF8983809137058430D6
:1034E00009F021CD1091E9001F709091EC00892F17
:1034F000817090FD80E8182B83E08093E900809133
:10350000E80080FF0CC040E050E060E270E0C701DE
:103510000E94CE258091E8008E778093E8001F708E
:103520001093E90000CD24E129BD86E189BD09B4ED
:1035300000FEFDCF8091D8008F7D8093D8008091D0
:10354000E00082608093E0008091E00081FDFCCF8C
:103550000E943420EDCC80E0AA24A394B12CA4CD09
:1035600085E290E00E946E271B821C821D828E8362
:10357000B4CF60E085E290E00E947C270E949B0728
:103580000E948B0761E282E290E00E947C2769E062
:1035900083E290E00E947C2767E184E290E00E9451
:1035A0007C2770CC80912C05089580E00895CF93FE
:1035B000DF9300D01F92CDB7DEB7909137059430DE
:1035C00019F589837B836A8385E08093E9008FEF17
:1035D0009091E800815095FD06C095ED9A95F1F720
:1035E00000008111F5CF8091E80085FF0DC040E01B
:1035F00050E063E070E0CE0101960E94CE258091FC
:10360000E8008E778093E8000F900F900F90DF9185
:10361000CF910895BC0184E00C94D71ABC0183E0DB
:103620000C94D71A22E02093E9002FEF3091E800A4
:10363000215035FD06C035ED3A95F1F70000211116
:10364000F5CF2091E80025FF0BC040E050E065E099
:1036500070E00E94CE258091E8008E778093E8008C
:103660000895CF93DF9321E02093E9002FEF30916D
:10367000E800215035FD06C035ED3A95F1F7000020
:103680002111F5CF2091E80025FF14C0EC0140E0A6
:1036900050E068E070E00E94CE258091E8008E77CF
:1036A0008093E80088E0FE01ADE2B5E001900D9264
:1036B0008A95E1F7DF91CF910895F89481E08093A6
:1036C000E00080E28093D800E9ECF0E010828FE126
:1036D0009EE40197F1F700C000001DBA1092680047
:1036E0001CBC10BE1FBA10927A0010926E0010928D
:1036F0006F00109270001092710010821092BC0046
:1037000011B814B817B81AB81DB810BA12B815B84D
:1037100018B81BB81EB811BA0C9400FE089578941E
:103720001F920F920FB60F9211248F939F93AF9316
:10373000BF9380918D0490918E04A0918F04B091DD
:1037400090040196A11DB11D80938D0490938E0469
:10375000A0938F04B0939004BF91AF919F918F91EC
:103760000F900FBE0F901F9018959C014FB7F894C3
:1037700080918D0490918E04A0918F04B09190045B
:103780004FBF821B930B08952FB7F89480918D043F
:1037900090918E04A0918F04B09190042FBF089552
:1037A0001F920F920FB60F9211248F939F93AF9396
:1037B000BF9380916604811113C080918D04909114
:1037C0008E04A0918F04B09190044196A11DB11D6B
:1037D00080938D0490938E04A0938F04B0939004F3
:1037E000BF91AF919F918F910F900FBE0F901F903F
:1037F00018959C01FC0132969FEF80E0419146179D
:1038000089F09F3F19F4411101C0982F8F5F8630D6
:10381000A9F79F3F39F0F901E90FF11D97FDFA95DE
:10382000628308950895CF9384E090E00E946E270C
:10383000C82F81E290E00E946E272C2F30E0A90172
:10384000582BCA01CF9108956BEE7EEF80E090E097
:103850000E949A2760E082E090E00E947C2760E06E
:1038600083E090E00E947C271092260510922705A5
:10387000109228051092290560E084E090E00E94F3
:103880007C2760E081E290E00E947C2760E085E098
:1038900090E00E947C2760E086E090E00E947C2718
:1038A0006FEF87E090E00E947C2740E050E0BA0193
:1038B00088E090E00E948E2760E08DE090E00E941A
:1038C0007C2740E050E0BA0188E190E00E948E271A
:1038D00060E087E190E00E947C2740E050E0BA0180
:1038E0008CE190E00E948E2760E080E290E00E94F0
:1038F0007C2740E050E0BA0188E190E00E948E27EA
:1039000040E050E0BA018FE090E00E948E2740E056
:1039100050E0BA0183E190E00C948E278091250558
:103920008111109225050895909124058091230519
:10393000892B20912205982F922B909391048091AE
:103940002505882389F0892B80939104E3E9F4E02D
:1039500097E080E0915029F021912223D9F38F5FE5
:10396000F9CF81110E948E1CE0914605F091470528
:10397000309731F00280F381E02D81E994E00994E1
:10398000089580E090E00E94AA0580E090E00E9407
:10399000940510922305109222050C94941CBF925A
:1039A000CF92DF92EF92FF920F931F93CF93DF930B
:1039B0008C01C0909B05D0909C05E0909D05F090F7
:1039C0009E058091260590912705A0912805B0912C
:1039D0002905C82AD92AEA2AFB2ACFE1D0E0D70153
:1039E000C6010C2E04C0B695A795979587950A94A5
:1039F000D2F780FD04C0219790F7B12C07C0BC2EF0
:103A0000B8018C2F0E942F0D0197A9F38B2DDF9108
:103A1000CF911F910F91FF90EF90DF90CF90BF90CB
:103A20000895CF93DF93EC010E94CF1CBE010E944A
:103A30002F0DDF91CF9108950E94111D292F2F7016
:103A4000E92FE295EF704E2F50E0FA013297EE30F9
:103A5000F105B8F4E559FF4F0C94AC2B803F99F079
:103A600018F4883E70F40FC0843F59F40CC0883EAF
:103A700050F0813F31F407C0822F86958695869558
:103A8000089580E0089581E0089520E1929F800DDF
:103A90001124682F669566956695982F977085E036
:103AA000689FB001112440E050E080E0FB01E40F8A
:103AB000F51FEF52FB4F208130E0092E02C03695F2
:103AC00027950A94E2F721703327042E01C0220FB4
:103AD0000A94EAF7822B4F5F5F4F4530510531F76B
:103AE000089520E1929F800D1124E82FE695E69538
:103AF000E695877051E001C0550F8A95EAF785E099
:103B0000E89FF0011124EF52FB4F20E030E070E01D
:103B10004081CB01022E02C0969587950A94E2F768
:103B20008170819584278523842781932F5F3F4F60
:103B30002530310569F7089560939B0570939C05C6
:103B400080939D0590939E050C94C11C0F931F9329
:103B500041E050E060E070E004C0440F551F661F74
:103B6000771F8A95D2F74095509560957095809112
:103B70009B0590919C05A0919D05B0919E058A01A1
:103B80009B01082319232A233B23C901B8011F9154
:103B90000F910C949C1D2091210580958223809388
:103BA0002105982F977079F430E0482F082E000CEB
:103BB000550B2417350739F08595859585950E9415
:103BC000A61D1092210508950F931F9341E050E028
:103BD00060E070E004C0440F551F661F771F8A9590
:103BE000D2F780919B0590919C05A0919D05B09185
:103BF0009E058A019B01082B192B2A2B3B2BC901FF
:103C0000B8011F910F910C949C1D60932605709331
:103C1000270580932805909329050C94C11C809159
:103C2000D00490919F04891719F08F5F8770FBCFA4
:103C300008950F931F93CF93DF9380919E048295F5
:103C40008F7009F05DC080919B04882309F458C0EF
:103C50008091D00410919F046091990470919A040E
:103C6000C0919C04D0919D0491E06F3F09F090E0D9
:103C7000292F06E0811709F443C0209721F07F3FE8
:103C800021F030E003C031E001C0322F90E030FD80
:103C900034C0089FF001099FF00D1124DF01A056E8
:103CA000BB4F11963C911197371327C03C913613A7
:103CB00024C012963C91129731111FC013964D915A
:103CC0005C9114974C1B5D0B483C5105B0F48091FE
:103CD0009E048F70806180939E04EB55FB4F808122
:103CE0008F708061808389E994E00E94C10EDF912A
:103CF000CF911F910F910C940F1E01968770BACF30
:103D0000DF91CF911F910F9108959F92AF92BF9233
:103D1000CF92DF92EF92FF920F931F93CF93DF9397
:103D2000CDB7DEB761970FB6F894DEBF0FBECDBF3B
:103D30008C0185E0F801DE011D9601900D928A95B7
:103D4000E1F7F80190818181E280309199046091DE
:103D50009A0440919C0450919D044115510531F005
:103D60006F3F31F421E03F3F19F403C021E001C06F
:103D700020E0F22FF1709F2E20FD23C1F801C380B7
:103D8000D48029E9A22E24E0B22EF0909B04F60103
:103D9000E41BF50BFF2009F4CEC020919E04E83C03
:103DA000F10508F099C0422F407F09F051C0681317
:103DB00011C039130FC0FE2CE1100CC02F70206110
:103DC00020939E04C5010E94C10E80919E04F801BB
:103DD000858337C1CD2831F08F3F31F421E09F3FFB
:103DE00019F403C021E001C020E020FD03C021E060
:103DF0002E2502C020E030E0F22FF170FF2E20FFD0
:103E00001DC02091D00440919F0456E0241709F46E
:103E1000F6C030E0529FF001539FF00D1124E056A0
:103E2000FB4F6181861306C06081961303C06281D7
:103E3000E61204C02F5F3F4F2770E8CFFE2CEE2024
:103E400009F4FFC080919E04816080939E0450C05D
:103E5000681307C0391305C0E11003C0F8012583BA
:103E60008DC09D878E878D859E850E941C1D882311
:103E700069F1EE2059F120919E04822F82958F7076
:103E800090E0029774F08091990490919A04988739
:103E90008F831986DB86CA862C87CE0107960E94FF
:103EA000C10E86E0F801A9E9B4E001900D928A956F
:103EB000E1F70E94191E0DC06817E1F09D878E87FB
:103EC0008D859E850E941C1D81111EC0C8010E9407
:103ED000C10EFF24F394B5C0422F407F69F789E9F2
:103EE00094E00E94C10E86E0F50111928A95E9F7EF
:103EF000F12CA7C03913E2CFE110E0CFF801258300
:103F0000C8010E94C10E57C0EE2001F320919E040B
:103F1000822F82958F7090E002971CF28091990415
:103F200090919A049A8389831B82DD82CC822E83AE
:103F3000CE010196B4CFE83CF105E8F5FE2CEE2069
:103F400029F2681327C0391325C020919E0420FD53
:103F500018C0822F82958F70482F50E0411551056F
:103F600081F0F80125834F30510541F08F5F982F84
:103F70009295907F822F8F70892B8583C8010E9434
:103F8000C10E86E0F801A9E9B4E001900D928A958E
:103F9000E1F757C09D878E878D859E850E941C1DE9
:103FA00081117FCF80919E04816080939E04C8011F
:103FB0000E94C10E46C086E0F50111928A95E9F78C
:103FC00040C0EE2009F482CF9D878E878D859E8527
:103FD0000E941C1DF82E882309F478CF86E0F80192
:103FE000A9E9B4E001900D928A95E1F780919904D6
:103FF00090919A040E94111D0E94191E22C09D8753
:104000008E878D859E850E94111D292F22952F70E8
:10401000223028F49F7039F0811105C00BC0243084
:1040200028F49F7049F4805E883020F0C8010E9417
:10403000C10E9F2CF92C05C0F8019581907F99F74E
:10404000F9CF8F2D61960FB6F894DEBF0FBECDBFAE
:10405000DF91CF911F910F91FF90EF90DF90CF9064
:10406000BF90AF909F9008951092240586E0E3E9F9
:10407000F4E0DF011D928A95E9F70C94C11C0F93BF
:104080001F9380919B0590919C05A0919D05B091F7
:104090009E058C019D010670112722273327BC0144
:1040A000CD01063011052105310511F4686001C00C
:1040B000677F1F910F910C949C1DCF92DF92EF921E
:1040C000FF92E0919A05EE23D9F0E15088E0E802F2
:1040D000F0011124E65AFA4FC280D380E480F580C3
:1040E00020E030E0A901C701B6010E94E1271816BF
:1040F0003CF480915905811106C01092580503C007
:10410000C12CD12C7601C701B601FF90EF90DF9052
:10411000CF900895CF92DF92EF92FF92CF93DF93EB
:104120002091570520FD08C0DF91CF91FF90EF90BF
:10413000DF90CF900C9432087B01EC018091560502
:10414000811102C00E9492088091550581110E9440
:10415000320881E08093540510925305D0935205A4
:10416000C0935105F0925005E0924F0510924E0514
:1041700010924D0510924C056C817D818E819F813E
:104180000E9458289B01A0E6BAEE0E94D227C12CBB
:104190002EE1D22EE12CF12CA70196010E94B0272E
:1041A000688179818A819B81A9010E94CB080E9444
:1041B000C41B90934B0580934A05809151059091C3
:1041C0005205E0914C05F0914D0533E0EE0FFF1FD5
:1041D0003A95E1F7E80FF91F64817581868197812F
:1041E0000E9458289B01A0E6BAEE0E94D227A701A0
:1041F00096010E94B0273093490520934805DF912E
:10420000CF91FF90EF90DF90CF900895E091460519
:10421000F0914705309731F00480F581E02D81E47D
:1042200095E009940895CF93DF93C2E3D0E00E9414
:10423000CF05811108C0209731F085E08A95F1F70C
:1042400000002197F4CFCE01DF91CF9108951F9305
:10425000CF93DF93CDB7DEB7AA970FB6F894DEBF42
:104260000FBECDBFE9E3F5E08091F100819345E019
:10427000E134F407C9F780913A05833009F460C04E
:1042800030F4813071F0823009F49AC0B1C08A30C4
:1042900009F486C08B3009F46BC0893009F0A8C0DE
:1042A00020C080913905813A09F0A2C08091E800D0
:1042B000877F8093E80080913D0590913E05892B92
:1042C00021F468E08DE295E003C060E080E090E0DA
:1042D00070E00E9412278091E8008B778093E800BD
:1042E00087C080913905813209F082C080913D05F7
:1042F00090913E05009719F0039709F079C08091DD
:10430000E800877F8093E8008091E80082FD05C087
:10431000809137058111F8CF6BC08091F2009091A8
:10432000F300029729F48091F1008B7F813021F412
:104330008091F10080932C058091E8008B7754C028
:1043400080913905813A09F053C080913D059091E3
:104350003E05892B09F04CC08091E800877F80934F
:10436000E8008091E80080FFFCCF80917E0337C099
:10437000809139058132E1F580913D0590913E05AE
:10438000892BB1F58091E800877F8093E8000E9437
:10439000BE2680913B0580937E030E94342028C076
:1043A00080913905813221F58091E800877F8093E3
:1043B000E8000E94BE2680913C0580932B0518C022
:1043C00080913905813AA1F48091E800877F80933C
:1043D000E8008091E80080FFFCCF80912B0580935E
:1043E000F1008091E8008E778093E8000E94BE265D
:1043F0008091E80083FFDFC18091390590913A05F3
:10440000492F50E04A30510508F0D5C1FA01E7586C
:10441000FF4F0C94AC2B803821F0823809F0CBC1CF
:1044200008C08091350590913605992389F0826006
:104430000FC080913D058F70873008F0BCC180931C
:10444000E9008091EB0085FB882780F91092E90054
:104450009091E800977F9093E8008093F10010928C
:10446000F1006DC1282F2D7F09F0A5C1882319F017
:10447000823061F0A0C180913B05813009F09BC181
:10448000933009F080E0809336052EC080913B0583
:1044900081112AC080913D058F702FEF280F2630A3
:1044A00008F089C18093E9002091EB0020FF1CC037
:1044B000933021F48091EB00806214C09091EB0066
:1044C00090619093EB0021E030E0A90102C0440F1D
:1044D000551F8A95E2F74093EA001092EA00809116
:1044E000EB0088608093EB001092E9008091E80077
:1044F000877F8093E8000E94BE265DC181115BC169
:1045000010913B051F778091E3008078812B809389
:10451000E3008091E800877F8093E8000E94BE2638
:104520008091E80080FFFCCF8091E3008068809359
:10453000E300111102C082E001C083E080933705DF
:104540003AC18058823008F036C120913B05309145
:104550003C052C3D53E0350779F583E08A838AE2F8
:1045600089834FB7F894DE01139620E03EE051E2D4
:10457000E32FF0E050935700E49120FF03C0E29551
:10458000EF703F5FEF708E2F90E0EA3010F0C7962B
:1045900001C0C0968D939D932F5F243149F74FBF83
:1045A0008091E800877F8093E8006AE270E0CE01A6
:1045B00001960E941227B1C080913D0590913E0561
:1045C000432F552743305105A9F068F44130510578
:1045D00009F400C14230510509F0EDC084E790E0D4
:1045E000E3E1F7E04BC04132510529F14232510578
:1045F00089F1E1C0C901992781309105A1F058F0F6
:10460000029709F0D8C0E9E9F7E0E4918E2F90E035
:10461000E9E9F7E030C0E3EFF7E0E4918E2F90E0B6
:10462000E3EFF7E028C0E9EBF7E0E4918E2F90E0AC
:10463000E9EBF7E020C08430910508F0BCC0880F9A
:10464000991FFC01EA53FC4F0190F081E02D89E0B5
:1046500090E014C08430910508F0ADC0FC01EE0F6D
:10466000FF1FE254FC4F0190F081E02DDC01A654C5
:10467000BC4F8C9190E0009709F49DC02091E80018
:10468000277F2093E80020913F05309140052817AF
:10469000390708F4C90140E0009771F1209137050E
:1046A0002223D9F12530C9F12091E80023FD35C03E
:1046B0002091E80022FD2DC02091E80020FFECCFE2
:1046C0002091F2003091F300009759F02830310525
:1046D00040F444914093F100319601972F5F3F4F92
:1046E000F3CF41E02830310509F040E02091E800A7
:1046F0002E772093E800D0CF4111D0CF0AC080910F
:104700003705882351F0853041F08091E80083FD22
:1047100004C08091E80082FFF2CF8091E8008B779F
:104720008093E80048C0803809F045C08091E800D7
:10473000877F8093E800809138058093F100809115
:10474000E8008E77D6CE811136C080913B059091DE
:104750003C05992702977CF58091E800877F80933C
:10476000E80010913B05109338050E94BE261111F8
:1047700006C08091E30087FD02C081E001C084E0B3
:104780008093370542E061EC81E00E94DD2642E043
:1047900061EC82E00E94DD2642E261EC85E00E944D
:1047A000DD2642E261EC83E00E94DD2642E260EC1D
:1047B00084E00E94DD268091E80083FF10C0809194
:1047C000E800877F8093E8008091EB00806280930F
:1047D000EB0005C082E190E0E7E8F7E04FCFAA9652
:1047E0000FB6F894DEBF0FBECDBFDF91CF911F9102
:1047F00008951F920F920FB60F9211240BB60F92CD
:104800002F933F934F935F936F937F938F939F93D8
:10481000AF93BF93CF93DF93EF93FF93C091E900E2
:10482000CF708091EC00D82FD17080FDD0E810922D
:10483000E9008091F000877F8093F00078940E94D7
:1048400027211092E9008091F00088608093F000A9
:10485000CD2BCF70C093E900FF91EF91DF91CF9105
:10486000BF91AF919F918F917F916F915F914F9188
:104870003F912F910F900BBE0F900FBE0F901F9086
:104880001895E8EDF0E080818C7F80831092E20043
:104890001092DA001092E100A0EEB0E08C918160FD
:1048A0008C9380818F77808319BCA7EDB0E08C91C9
:1048B0008E7F8C9380818F7E808310922A0508954D
:1048C000CF92DF92EF92FF920F931F93CF93DF93DC
:1048D000C8EDD0E088818F7E8883E7EDF0E08081AD
:1048E0008160808381E080932A0588818C7F888322
:1048F00002EE10E0D8011C921092DA0081EEC82E70
:10490000D12CD6011C9288818F778883888180681A
:10491000888388818F7D888380818068808319BCAB
:104920001092370510923805109236051092350511
:1049300090EEE92EF12CF70180818B7F80838881B6
:104940008160888342E060E080E00E94DD26D6013D
:104950008C918E7F8C93F80180818160808380812F
:1049600088608083D7018C918E7F8C938881806151
:104970008883DF91CF911F910F91FF90EF90DF908F
:10498000CF9008951F920F920FB60F9211240BB67D
:104990000F922F933F934F935F936F937F938F93D8
:1049A0009F93AF93BF93EF93FF938091E10082FFBA
:1049B00009C08091E20082FF05C08091E1008B7FF9
:1049C0008093E1008091DA0080FF2AC08091D800B6
:1049D00080FF26C08091DA008E7F8093DA0080917C
:1049E000D90080FF18C084E189BD86E189BD09B482
:1049F00000FEFDCF81E08093370580912A0581116B
:104A00000FC00E9441240E9460248091E2008460D3
:104A10008093E20005C019BC1092370510922A0558
:104A20008091E10080FF17C08091E20080FF13C0F9
:104A30008091E2008E7F8093E2008091E2008061AD
:104A40008093E2008091D80080628093D80019BCE6
:104A500085E0809337058091E10084FF2EC080912E
:104A6000E20084FF2AC084E189BD86E189BD09B4E2
:104A700000FEFDCF8091D8008F7D8093D80080917B
:104A8000E1008F7E8093E1008091E2008F7E809331
:104A9000E2008091E20081608093E200809138051D
:104AA000882311F084E007C08091E30087FD02C0F5
:104AB00081E001C083E0809337058091E10083FFAE
:104AC00027C08091E20083FF23C08091E100877FAF
:104AD0008093E10082E08093370510923805809141
:104AE000E1008E7F8093E1008091E2008E7F8093D1
:104AF000E2008091E20080618093E20042E060E0A9
:104B000080E00E94DD268091F00088608093F000B4
:104B1000FF91EF91BF91AF919F918F917F916F9195
:104B20005F914F913F912F910F900BBE0F900FBE51
:104B30000F901F9018952091E4003091E50095E6C4
:104B40004091EC00842F817040FF23C08091E800E9
:104B500080FD1DC080913705882399F0853099F03C
:104B60008091EB0085FD11C04091E4005091E5007B
:104B70002417350729F3915011F09A01E1CF84E011
:104B8000089582E0089583E0089581E0089580E02B
:104B900008954091E80042FFDDCF0895EF92FF9223
:104BA0000F931F93CF93DF937C018B010E949B2572
:104BB000811119C0E70101151105A1F08091E800EC
:104BC00085FD0AC08091E8008E778093E8000E94FE
:104BD0009B25882381F307C089918093F1000150C0
:104BE0001109E9CF80E0DF91CF911F910F91FF90E4
:104BF000EF900895882341F08095909124058923B2
:104C0000809324050C94941C0895882339F0909186
:104C10002405892B809324050C94941C08958823E3
:104C2000A9F19CEF980F913A60F4E1E9F4E09281E8
:104C3000891301C01282319644E0E739F407B9F7CD
:104C400014C090E2980F983090F4877021E030E023
:104C5000A90102C0440F551F8A95E2F7CA01809549
:104C6000909124058923809324050C94941C9BE542
:104C7000980F933020F480E090E00C94AA05885AB5
:104C8000873120F480E090E00C9494050895CF9350
:104C9000882309F453C09CEF980F913AF8F4C82F79
:104CA000E3E9F4E089E994E02191C21721F08E173D
:104CB0009F07D1F70DC0E1E9F4E08281C81301C07C
:104CC0001282319644E0E739F407B9F70E94941C48
:104CD0006C2F81E994E00E94F91B13C090E2980FB9
:104CE000983090F4877021E030E0A90102C0440FB1
:104CF000551F8A95E2F7CA0190912405892B80936C
:104D00002405CF910C94941CEBE5E80FE33040F4BC
:104D1000F0E0E253FC4F808190E0CF910C94AA0523
:104D2000885A873158F4E82FF0E0EE0FFF1FEF525A
:104D3000FC4F80819181CF910C949405CF9108957F
:104D40001F93CF93DF93182F893319F0C0E0D0E081
:104D500002C0C0E5D0E0812F0E944726209741F095
:104D60008FE99FE00197F1F700C000002197F6CF8F
:104D7000812FDF91CF911F910C940F2680913905DF
:104D800087FF11C08091E80082FD05C08091370542
:104D90008111F8CF11C08091E8008B770BC0809112
:104DA0003705882349F08091E80080FFF8CF809193
:104DB000E8008E778093E8000895982F973068F583
:104DC0009093E900981739F07091EC002091ED0074
:104DD0005091F00003C0242F762F50E021FD02C037
:104DE0009F5FECCF3091EB003E7F3093EB00309132
:104DF000ED003D7F3093ED003091EB00316030935A
:104E0000EB007093EC002093ED005093F0002091A4
:104E1000EE0027FDE5CF80E008958F708093E900D4
:104E200081E0089520913F0530914005261737070E
:104E300048F06115710539F42091E8002E77209330
:104E4000E80001C0B901FC0120E06115710569F1BC
:104E5000809137058823E1F18530E1F18091E80008
:104E600083FD3AC08091E80082FD2CC08091E8006B
:104E700080FFEBCF8091F2009091F30061157105F6
:104E800051F08830910538F421912093F100615060
:104E900071090196F3CF21E0089709F020E0809195
:104EA000E8008E778093E800D0CF2111D1CF0AC0DF
:104EB00080913705882361F0853061F08091E800AA
:104EC00083FD0AC08091E80082FFF2CF80E0089560
:104ED00082E0089583E0089581E00895F999FECF76
:104EE00092BD81BDF89A992780B50895A8E1B0E0F8
:104EF00042E050E00C94A227262FF999FECF92BDF4
:104F000081BDF89A019700B4021639F01FBA20BD8E
:104F10000FB6F894FA9AF99A0FBE08950396272FC0
:104F20000E947D270E947C27252F0E947D27242F09
:104F30000C947D270196272F0E947D270C947C27B7
:104F4000DC01CB01FC01F999FECF06C0F2BDE1BD49
:104F5000F89A319600B40D9241505040B8F7089538
:104F6000A1E21A2EAA1BBB1BFD010DC0AA1FBB1F6D
:104F7000EE1FFF1FA217B307E407F50720F0A21BDF
:104F8000B30BE40BF50B661F771F881F991F1A944C
:104F900069F760957095809590959B01AC01BD0176
:104FA000CF010895A29FB001B39FC001A39F700DD0
:104FB000811D1124911DB29F700D811D1124911D21
:104FC00008950E94C42808F481E008950E94FA27F9
:104FD0000C94FF280E94F82858F00E94F12840F015
:104FE00029F45F3F29F00C94E82851110C943329DF
:104FF0000C94EE280E94102968F39923B1F35523ED
:1050000091F3951B550BBB27AA27621773078407DB
:1050100038F09F5F5F4F220F331F441FAA1FA9F371
:1050200035D00E2E3AF0E0E832D091505040E6955F
:10503000001CCAF72BD0FE2F29D0660F771F881FC0
:10504000BB1F261737074807AB07B0E809F0BB0BB3
:10505000802DBF01FF2793585F4F3AF09E3F5105C7
:1050600078F00C94E8280C9433295F3FE4F3983EE1
:10507000D4F3869577956795B795F7959F5FC9F7B0
:10508000880F911D9695879597F90895E1E0660F31
:10509000771F881FBB1F621773078407BA0720F0AA
:1050A000621B730B840BBA0BEE1F88F7E095089513
:1050B0000E94182988F09F5798F0B92F9927B75167
:1050C000B0F0E1F0660F771F881F991F1AF0BA95AC
:1050D000C9F714C0B13091F00E943229B1E00895AF
:1050E0000C943229672F782F8827B85F39F0B93FA1
:1050F000CCF3869577956795B395D9F73EF490955F
:105100008095709561957F4F8F4F9F4F0895E894DC
:1051100009C097FB3EF490958095709561957F4FFF
:105120008F4F9F4F9923A9F0F92F96E9BB279395AD
:10513000F695879577956795B795F111F8CFFAF4BD
:10514000BB0F11F460FF1BC06F5F7F4F8F4F9F4FEE
:1051500016C0882311F096E911C0772321F09EE84C
:10516000872F762F05C0662371F096E8862F70E0B2
:1051700060E02AF09A95660F771F881FDAF7880F8C
:105180009695879597F90895990F0008550FAA0BE2
:10519000E0E8FEEF16161706E807F907C0F012164A
:1051A0001306E407F50798F0621B730B840B950B4D
:1051B00039F40A2661F0232B242B252B21F40895A2
:1051C0000A2609F4A140A6958FEF811D811D08953F
:1051D00097F99F6780E870E060E008959FEF80ECAA
:1051E000089500240A94161617061806090608954D
:1051F00000240A9412161306140605060895092EB3
:105200000394000C11F4882352F0BB0F40F4BF2B21
:1052100011F460FF04C06F5F7F4F8F4F9F4F089561
:1052200057FD9058440F551F59F05F3F71F0479557
:10523000880F97FB991F61F09F3F79F0879508953C
:10524000121613061406551FF2CF4695F1DF08C05B
:10525000161617061806991FF1CF86957105610578
:1052600008940895E894BB2766277727CB0197F920
:1052700008950E944C290C94FF280E94F12838F0D0
:105280000E94F82820F0952311F00C94E8280C9443
:10529000EE2811240C9433290E94102970F3959F55
:1052A000C1F3950F50E0551F629FF001729FBB271D
:1052B000F00DB11D639FAA27F00DB11DAA1F649FB9
:1052C0006627B00DA11D661F829F2227B00DA11D6C
:1052D000621F739FB00DA11D621F839FA00D611DF2
:1052E000221F749F3327A00D611D231F849F600D13
:1052F000211D822F762F6A2F11249F5750409AF03C
:10530000F1F088234AF0EE0FFF1FBB1F661F771FC7
:10531000881F91505040A9F79E3F510580F00C9492
:10532000E8280C9433295F3FE4F3983ED4F3869544
:1053300077956795B795F795E7959F5FC1F7FE2B32
:10534000880F911D9695879597F90895FA01EE0FAC
:10535000FF1F309621053105A1F16115710561F43A
:105360008038BFE39B0749F168949038810561F06C
:105370008038BFEF9B0741F099234AF5FF3FE105D5
:105380003105210519F1E8940894E795D901AA237C
:1053900029F4AB2FBE2FF85FD0F310C0FF5F70F47D
:1053A000A695E0F7F73950F019F0FF3A38F49F77F7
:1053B0009F930DD00F9007FC9058089546F00C94E1
:1053C000EE2860E070E080E89FE308954FE79F7764
:1053D0005F934F933F932F930E94A12A2F913F9168
:1053E0004F915F910E9439290C94FE2929F416F0FF
:1053F0000C94E8280C9432290C94EE280E94182969
:10540000A8F39638A0F707F80F92E8942BE33AEA4E
:1054100048EB5FE70E944F290F920F920F924DB712
:105420005EB70F920E94E92AE6E0F1E00E94302A7E
:105430004F915F91EF91FF91E595EE1FFF1F49F0AE
:10544000FE57E0684427EE0F441FFA95E1F74195B7
:10545000550B0E94632A0F9007FE0C94572A08955B
:10546000DF93CF931F930F93FF92EF92DF927B0115
:105470008C01689406C0DA2EEF010E944C29FE01CF
:10548000E894A5912591359145915591A6F3EF01A9
:105490000E94352BFE019701A801DA9469F7DF908D
:1054A000EF90FF900F911F91CF91DF9108959B0195
:1054B000AC0160E070E080E89FE30C94E6270C9478
:1054C000E8280C948A2B0E941829D8F39923C9F351
:1054D000940F511DA3F39150504094F059F088233C
:1054E00032F0660F771F881F91505040C1F79E3FE2
:1054F00051052CF7880F911D9695879597F908957A
:105500005F3FACF0983E9CF0BB27869577956795FA
:10551000B79508F4B1609395C1F7BB0F58F711F434
:1055200060FFE8CF6F5F7F4F8F4F9F4FE3CF0C94AB
:10553000332916F00C948A2B0C94EE2868940C9462
:10554000E8280E941829A8F39923C1F3AEF3DF934A
:10555000CF931F930F93FF92C92FDD2788232AF043
:105560002197660F771F881FDAF720E030E040E8C8
:105570005FEB9FE3883920F0803E38F021968F77EB
:105580000E941E2BEEE2F1E004C00E941E2BEBE510
:10559000F1E00E94302A8B01BE01EC01FB2E6F5717
:1055A00071097595771F880B990B0E94892828E14E
:1055B00032E741E35FE30E944C29AF2D9801AE0131
:1055C000FF900F911F91CF91DF910E94352B0C948A
:1055D000FF28FA01DC01AA0FBB1F9B01AC01BF57DA
:1055E00028F4222733274427507820C0B75190F45D
:1055F000AB2F0024469537952795011CA395D2F330
:10560000002071F0220F331F441FB395DAF30ED040
:105610000C941D2B61307105A0E88A07B94630F45F
:105620009B01AC016627772788279078309621F078
:10563000208331834283538308955058BB27AA2780
:105640000E94352B0C94FF280E94F12838F00E940C
:10565000F82820F039F49F3F19F426F40C94EE2832
:105660000EF4E095E7FB0C94E828E92F0E9410293E
:1056700058F3BA17620773078407950720F079F487
:10568000A6F50C9432290EF4E0950B2EBA2FA02D1E
:105690000B01B90190010C01CA01A0011124FF27DF
:1056A000591B99F0593F50F4503E68F11A16F040DA
:1056B000A22F232F342F4427585FF3CF46953795D9
:1056C0002795A795F0405395C9F77EF41F16BA0B9E
:1056D000620B730B840BBAF09150A1F0FF0FBB1F4C
:1056E000661F771F881FC2F70EC0BA0F621F731F95
:1056F000841F48F4879577956795B795F7959E3FF2
:1057000008F0B0CF9395880F08F09927EE0F979582
:10571000879508959F3F31F0915020F487957795B4
:105720006795B795880F911D9695879597F9089578
:1057300097FB072E16F4009407D077FD09D00E943E
:10574000BC2B07FC05D03EF4909581959F4F0895A2
:10575000709561957F4F0895EE0FFF1F0024001C88
:105760000BBE0790F691E02D0994692796276927CB
:105770007827872778270895AA1BBB1B51E107C00C
:10578000AA1FBB1FA617B70710F0A61BB70B881FD1
:10579000991F5A95A9F780959095BC01CD01089560
:0457A000F894FFCFAB
:1057A40052D0A444000000410000DC440000004149
:1057B40052D024450000404100005C4400000041F8
:1057C4000000DC44000000410000DC440000004113
:1057D40000005C44000000410100005C4400000043
:1057E4004148F17644000000415C978A440000007F
:1057F400411FD592440000004152D0A4440000004F
:10580400415CFFB844000000410AA7CF44000000F7
:10581400410000DC44000000410000DC44000000C2
:10582400410AA7CF44000000415CFFB844000000D7
:105834004152D0A444000000411FD592440000000E
:10584400415C978A440000004148F176440000001E
:105854004100005C440000004100005C4400000082
:105864004148F17644000000415C978A44000000FE
:10587400411FD592440000004152D0A444000000CE
:10588400415CFFB844000000410AA7CF4400000077
:10589400410000DC440000004100005C4400008042
:1058A400415C978A440000804152D0A444000080A7
:1058B400410000DC44000080410000DC44000000A2
:1058C400410AA7CF44000000415CFFB84400000037
:1058D4004152D0A444000000411FD592440000006E
:1058E400415C978A440000004148F176440000007E
:1058F4004100005C440000004100005C4400008062
:10590400411F1569440000804148F176440000803D
:105914004100D08244000080415C978A44000080AA
:1059240041A4D024440000804100005C4400008075
:10593400411FD59244000080415CFFC344000080B5
:105944004100000000000000005CFF4344000080B0
:10595400411FD59244000080410000DC44000080D7
:105964004152D024450000804100000000000000A6
:105974000000005C440000804148F176440000804F
:10598400415C978A44000080411FD5924400008006
:105994004152D0A4440000804103640000005C44F0
:1059A4000000004100005C440000004100005C4431
:1059B4000000004100005C440000004148F17644CE
:1059C4000000C04000005C440000C04048F1764440
:1059D4000000C04000005C440000C04048F1764430
:1059E4000000C04000005C440000C04048F1764420
:1059F4000000C04000005C440000C04052D0244578
:105A0400000000410000DC440000004152D0A444E6
:105A140000004041D21A311B121B0E1B0A1B01004D
:105A240002040507090B0C0E1011131517181A1C84
:105A34001D1F2123242628292B2D2F3032343537BE
:105A4400393B6061626364656667F7F6F5F4F3F207
:105A5400F1F0C6C730313233343540224732D306F1
:105A6400B1066A06380625073E075E077707818276
:105A740083E200E900EA00B500B600B700CD008378
:105A840001CC008A019201940121022302240225FF
:105A940002260227022A02B300B4006F007000003D
:00000001FF
